:1000000060130020E92800003D290000752700004A
:100010007527000075270000752700007527000070
:10002000752700007527000075270000E9230000F0
:100030007527000075270000A52300007527000024
:10004000AD280000AD280000AD280000AD2800005C
:10005000AD280000AD280000AD280000AD2800004C
:10006000AD280000AD280000AD280000AD2800003C
:10007000AD280000AD280000AD280000AD2800002C
:10008000AD280000AD280000AD280000AD2800001C
:10009000AD280000AD280000AD280000AD2800000C
:1000A000AD280000AD280000AD280000AD280000FC
:1000B000AD280000AD280000AD280000AD280000EC
:1000C000AD280000AD280000AD280000AD280000DC
:1000D000AD280000AD280000AD28000000000000A1
:1000E000212100000000000009270000000000009E
:1000F00009270000000000000927000000000000A0
:10010000092700000000000009270000000000008F
:10011000753A0000C01D002091380000000000006A
:10012000092700000000000009270000000000006F
:10013000092700000000000009270000000000005F
:10014000092700000000000009270000000000004F
:10015000092700000000000009270000000000003F
:1001600009270000000000005D22000000000000E0
:10017000092700000000000009270000000000001F
:10018000092700000000000009270000000000000F
:1001900009270000000000000927000000000000FF
:1001A00009270000000000000927000000000000EF
:1001B00009270000000000000927000000000000DF
:1001C00009270000000000000927000000000000CF
:1001D00009270000000000000927000000000000BF
:1001E00009270000000000000927000000000000AF
:1001F000092700000000000009270000000000009F
:10020000092700000000000009270000000000008E
:10021000092700007BB972B90029BEBF00204FF04A
:10022000004106E008BF00281CBF6FF000414FF0FE
:10023000FF3000F0BDB9ADF1080C6DE904CE002926
:1002400009DB002B1ADB00F04DF8DDF804E0DDE9F6
:10025000022304B07047404261EB4101002B1BDBDD
:1002600000F040F8DDF804E0DDE9022304B040428C
:1002700061EB4101524263EB43037047524263EB2F
:10028000430300F02FF8DDF804E0DDE9022304B0B9
:10029000404261EB41017047524263EB430300F07F
:1002A00021F8DDF804E0DDE9022304B0524263EBFB
:1002B0004303704753B94AB9002908BF00281CBF3F
:1002C0004FF0FF314FF0FF3000F072B9ADF1080C84
:1002D0006DE904CE00F006F8DDF804E0DDE9022364
:1002E00004B070472DE9F047089E04468846002B6D
:1002F0004BD18A42154667D9B2FA82F24AB1C2F1AD
:10030000200701FA02F320FA07F7954047EA0308AD
:1003100094404FEA154E230CB8FBFEF71FFA85FCFC
:100320000EFB178843EA084307FB0CF1994209D9F1
:10033000EB1807F1FF3080F01B81994240F21881E1
:10034000023F2B445B1AA4B2B3FBFEF00EFB10334A
:1003500044EA034400FB0CFCA44509D92C1900F124
:10036000FF3380F00781A44540F2048102382C4419
:1003700040EA0740A4EB0C0400271EB1D440002340
:10038000C6E900433946BDE8F0878B4209D9002E03
:1003900000F0EB800027C6E9000138463946BDE889
:1003A000F087B3FA83F7002F47D18B4202D3824202
:1003B00000F2FA80841A61EB030301209846002EB4
:1003C000E0D0C6E90048DDE702B9FFDEB2FA82F20A
:1003D000002A40F08F80491B4FEA154E1FFA85F81E
:1003E0000127B1FBFEFC230C0EFB1C1143EA014369
:1003F00008FB0CF1994207D9EB180CF1FF3002D23F
:10040000994200F2CD808446591AA3B2B1FBFEF0A6
:100410000EFB101443EA044408FB00F8A04507D97A
:100420002C1900F1FF3302D2A04500F2B680184625
:10043000A4EB080440EA0C409FE7C7F1200CBB4046
:1004400022FA0CFE4EEA030E01FA07F420FA0CF52C
:1004500021FA0CF34FEA1E482543B3FBF8F92C0CA4
:1004600008FB19331FFA8EFA44EA034309FB0AF426
:100470009C4202FA07F200FA07F10BD91EEB0303C4
:1004800009F1FF3080F087809C4240F28480A9F11E
:10049000020973441B1BADB2B3FBF8F008FB103329
:1004A00045EA034400FB0AFAA24508D91EEB0404FE
:1004B00000F1FF336BD2A24569D90238744440EA97
:1004C0000940A0FB0289A4EB0A044C45C2464B46F6
:1004D00054D351D0002E69D0B1EB0A0564EB03046C
:1004E00004FA0CFCFD40FC404CEA0505C6E900544A
:1004F000002747E7C2F1200320FA03F7954001FAED
:1005000002F021FA03F34FEA154E3843010CB3FB16
:10051000FEF71FFA85F80EFB173341EA034107FB8C
:1005200008F38B4204FA02F407D9691807F1FF3C7B
:100530002FD28B422DD9023F2944CB1A81B2B3FB73
:10054000FEF00EFB103341EA034100FB08F38B423F
:1005500007D9691800F1FF3C17D28B4215D9023830
:100560002944C91A40EA07473BE73746304609E7BE
:100570000746E7E61846FBE64145ABD2B8EB020A70
:1005800069EB0E0201381346A4E76046E9E7184616
:1005900095E76746D1E781467CE702382C4447E778
:1005A000ACF1020C2B442FE7384608E73746E9E662
:1005B000704700BF04F082B92DE9F74F43680E463B
:1005C00092465B686A4616210446984740BBDDE9BF
:1005D00000B5A6FB0B0106FB0511144A0023FFF72B
:1005E00069FE4FF000094FF0FF38894508BF80458C
:1005F000064618D3AAFB0B010AFB05110B4A002380
:10060000FFF758FE894508BF80450CD36368324622
:100610001D68162103462046A84703B0BDE8F08FA9
:100620006FF00400F9E76FF02200F6E740420F0098
:1006300030B587B004461422002101A802F021FA47
:100640000120A0400C23029004931A4D1A480395F0
:100650000A238DF8143003F013FD044680B91748BF
:1006600002F0B4FE636801A95B6820469847014622
:1006700010B1134802F0AAFEB5F9000007B030BD72
:10068000436810491B689847014610B10E4802F0B4
:100690009DFE63680D491B6820469847014610B1CE
:1006A0000B4802F093FE0C220021024802F0E9F907
:1006B000D8E700BF00000020EE510000F451000018
:1006C00073520000FC5000000A5200000451000068
:1006D0003E52000044F6206210B511460446FFF772
:1006E0006BFF20B10E48BDE8104000F0B7BA5A20A9
:1006F000FFF760FF44F6585244F620612046FFF7AA
:100700005BFF0028EED15A20FFF754FF6FF0C702BD
:1007100044F620612046FFF74FFF0028E2D110BDCC
:100720009352000010B5002244F620610446FFF702
:1007300043FF20B10E48BDE8104000F08FBA5A20A8
:10074000FFF738FFC82244F620612046FFF734FF48
:100750000028EFD15A20FFF72DFF4FF4C87244F65E
:1007600020612046FFF728FF0028E3D110BD00BF1D
:100770009352000010B50446FFF7ACFF002211466B
:100780002046FFF719FF4FF47A70FFF713FF20465A
:10079000FFF7C8FF002220461146BDE81040FFF7D2
:1007A0000BBF64238842B0FBF3F230B5B1FBF3F426
:1007B00003FB120503FB14138ABF4FF434700020AF
:1007C0000C349D4229BF3C335B1B5B1BD24335BFBE
:1007D0001B181B18A21A12193C2000FB02334EF6FC
:1007E0006020584330BD00002DE9F843384802F03E
:1007F000EDFD384803F044FC43680D2200211C68DD
:100800004FF48073A047344800F028FA334803F0CF
:1008100037FC064628B931493148BDE8F84300F0B5
:100820001DBA04F0EFFA40F2DE51044640F2DD500A
:10083000FFF7B7FF214605192A482B4FDFF8BC8088
:10084000DFF8BC9002F0C2FD2946264802F0BEFD4A
:100850004FF4FA70FFF7AEFE384600F0FFF90020C3
:10086000FFF7E6FEC72804461CDC204802F0AEFD78
:1008700021461F4800F0F2F904F0C4FA854201460F
:10088000E6D805F57A739842E2D8164802F09EFD44
:100890003046FFF76FFF4FF47A70FFF78BFE04F0DE
:1008A000B1FAD5E7A0F1C803AA2B01D81148DDE7BA
:1008B0006FF4B9728318812B01D80F48D6E76FF413
:1008C000FA73C3184F2B94BF48464046CEE700BF8B
:1008D0000C5100001B510000225100006251000029
:1008E00068510000795100007D5100008C510000DA
:1008F000E95100009D510000B1510000D9510000A4
:10090000C551000008B50446084611461A46A047DE
:1009100004F03AF801F0A6FF002070470B6801339D
:100920000B60014B1B681847A01C00202DE9F04FFD
:1009300085B09B460E9CDFF890A0012CB8BF012427
:10094000012B0CBF30232023154680468946019495
:10095000029301260A2700220AF101040AB9AA45D6
:100960001FD2B5FBF4F049463030C04701360122B2
:10097000013F012FB5FBF4F14FF00A0304FB1155C1
:10098000BAFBF3FAE8D1494605F13000C047BBF1A4
:10099000030F03D1019B9C1B002C0FDC05B0BDE8AD
:1009A000F08F019BBB42E3DBBBF1020FE0D849466D
:1009B000029803920136C047039AD9E7494620209E
:1009C000C047013CE8E700BFFFC99A3B014B1860F4
:1009D000704700BFA01C00202DE9F04F89B01C46D5
:1009E0004FF0000A531E06460F4604934FF0FF399E
:1009F000D046002505E06DB9252800F01281394662
:100A0000B047049B13F8010F04930028F3D109B0F9
:100A1000BDE8F08F642861D019D839280AD8312868
:100A200050D22D283CD030283DD0252808D1394639
:100A3000B047DEE7582800F08880632800F0EB809C
:100A400039462520B047049B39461878F0E77028CE
:100A500071D006D8692841D06C283CD06828D0D005
:100A6000EEE7752857D017D87328E9D1236804F129
:100A7000040B1C46254615F8010B002840F0C080E9
:100A8000B8F1030F40F0D680E41AA9EB0404002C5F
:100A900000F3BC805C46ACE7782856D07A28DEE7C5
:100AA0004FF00308ADE7B9F1000F0EDAB8F1000F0F
:100AB00000F0BD80A0F13009B8F1000F08BF4FF081
:100AC00002089EE7B9F1000FF4DB0A2303FB0909D2
:100AD000A9F13009F0E70AF1010A92E7BAF1010F32
:100AE000C5BF073424F0070325681D68D4BF04344C
:100AF00003F10804002D05DA39462D20B0476D4278
:100B000009F1FF39CDF8009043462A463946304670
:100B1000FFF70CFF6DE7BAF1010FC5BF073424F0F2
:100B2000070322681A68CDF80090CCBF03F10804CF
:100B300004344346EAE739463020B0473946782046
:100B4000B0474FF008094FF00108BAF1010FC7BFD5
:100B5000073424F0070323680593C2BF03F1080498
:100B60001B6805934FF008024FF00003D8BF043410
:100B70000393079393460BF1FF3B059B4FEA8B00D2
:100B800023FA00F010F00F0009D1079B13B9BBF155
:100B9000000F24D14FF0300C07E0069AEBE709284C
:100BA0008CBF4FF0570C4FF0300C39466044069222
:100BB000B047039B079501330393BBF1000FECD1C2
:100BC000B8F1030F7FF415AF039BC3EB4905002D6C
:100BD0007FF70FAF39462020B047013DF7E7531E9E
:100BE00091450693E9DBB8F1010F03D13946302076
:100BF000B047E2E7B8F1020FDFD139462020F7E72E
:100C0000394603932C46B047039B33E739462020EF
:100C1000B047013C3BE72068251D3946B0472C46CC
:100C2000E7E6AA46A8464FF0FF390125E9E64FF06E
:100C30000108E6E65C460546E3E6000013B502ACB3
:100C4000002344F8043D02460B4603482146FFF7C3
:100C5000C3FE02B010BD00BF1D0900000FB407B5F0
:100C600004A951F8040B0191FFF7E8FF03B05DF808
:100C700004EB04B07047704710B54FF02003EFF35A
:100C8000118483F3118800F04FF8084A0123C2F859
:100C900040354FF08042C2F87835054B4FF0FF32B7
:100CA0009A62DA6284F31188002010BD00E00140EE
:100CB00000ED00E00C4B1B78062B10D10B4B1B6892
:100CC0001A070CD10A4B186800F0F003302B08D03B
:100CD00000F0E000A0F14003584258417047002066
:100CE00070470120704700BFE00F00F0E40F00F0F4
:100CF000E80F00F0094B1B78062B0CD1084B1B6842
:100D00001A0708D1074B186800F0F000A0F1300373
:100D10005842584170470020704700BFE00F00F074
:100D2000E40F00F0E80F00F008B5FFF7C3FF28B1AB
:100D3000784B794A1B68C3F304231360FFF7DAFF8B
:100D400010B1764B764A1A60FFF7B4FF28B1754BA5
:100D5000754A1B68C3F342331360FFF7CBFF20B122
:100D6000724AD36823F08073D360FFF7A3FF40B1CA
:100D70004FF080430022C3F80C21C3F81021C3F8C0
:100D80003825FFF7B7FF10B1694B03221A60FFF750
:100D9000B1FF40B1674B05221A6001229A67002219
:100DA0009A603F225A60644B1B78062B50D1634BEC
:100DB0001B6819074CD1624B1B6803F0F003502BE2
:100DC00046D14FF080525F4BD2F80414C3F820157F
:100DD000D2F80814C3F82415D2F80C14C3F8281557
:100DE000D2F81014C3F82C15D2F81414C3F8301527
:100DF000D2F81814C3F83415D2F81C14C3F84015EF
:100E0000D2F82014C3F84415D2F82414C3F84815B6
:100E1000D2F82814C3F84C15D2F82C14C3F8501586
:100E2000D2F83014C3F85415D2F83414C3F860154E
:100E3000D2F83814C3F86415D2F83C14C3F8681516
:100E4000D2F84014C3F86C15D2F84424C3F87025C6
:100E5000FFF730FF28B13C4B3C4A1B6803F04F03BF
:100E60001360FFF727FF48B14FF08043D3F8002409
:100E7000D20744BF6FF00102C3F80024344B1B6853
:100E8000062B08D1334B1B68062B01BF324A13686F
:100E900043F4806313604FF01023D3F80022002A3C
:100EA00003DBD3F80432002B2FDA2C4B0122C3F8DA
:100EB0000425D3F80024002AFBD04FF0102215217E
:100EC000C2F80012D3F80024002AFBD04FF0102300
:100ED0001522C3F80422214B1A46D3F80014002926
:100EE000FBD00021C3F80415D2F80034002BFBD04E
:100EF000BFF34F8F1A491B4BCA6802F4E0621343D9
:100F0000CB60BFF34F8F00BFFDE7174B174A1A6046
:100F100008BD00BF240300104035014074C00740E5
:100F20000DF0ADBA440200103C050040F0ED00E0C9
:100F3000A005004010560040E00F00F0E40F00F064
:100F4000E80F00F000C0004058020010E40E00401E
:100F500030010010340100103C17004000E0014057
:100F600000ED00E00400FA05C41C00200090D0034E
:100F70000369C1688B429DBF8268D21802F1FF32BB
:100F800003F1FF3394BF501A581A70472DE9F0410E
:100F9000D0E902670446F61B40689642884615462B
:100FA000384405D901F040FD3D44E560BDE8F081DD
:100FB0003246AD1B01F038FD2A4608EB0601606899
:100FC00001F032FDF1E72DE9F843C5680646894690
:100FD00017464FF000083469B3687068A54228BF0F
:100FE000E418013C621B5C1BBC4228BF3C46944297
:100FF00028BF144649462844224601F015FDB3682F
:101000002544AB4208BF00253F1BA044A144F56026
:10101000E1D14046BDE8F88310B5114C114AA261F8
:101020000323C4E90433104BE36122664FF4806369
:101030000E4A23626266002310220D49A362E01D5E
:101040006362E3622367E3666367A26601F0B0FC54
:101050000849204601F0ACFC2023A37110BD00BF5D
:1010600040060020B95200001C0000200C000020A7
:10107000C2520000C6520000DFF888C02DE9F047D8
:101080004FF0180A0AFB00C78946BE6A7D6AAE4265
:1010900014462BD83B6AA3EB050808F1FF3E7245C6
:1010A00006D800FB0AA39C44DCF8040028440AE0AC
:1010B0007644B24223D800FB0AA30CEB030690450A
:1010C0007068284403D901F0AFFC2C440AE0424682
:1010D000A4EB080401F0A8FC224609EB08017068A3
:1010E00001F0A2FC7C620120BDE8F087013E761B86
:1010F000964204D300FB0AA363445868D6E7002055
:10110000F2E700BF40060020F8B5184C182300FB9A
:10111000033503FB00402544C46A012C0F461646E4
:1011200011D003D3022C1BD000240AE02846FFF77D
:101130001FFF864205D8324639462846FFF726FF6C
:1011400034462046F8BD2846FFF712FF8642344653
:1011500028BF0446224639462846FFF717FFF0E726
:101160002846BDE8F840FFF72EBF00BF400600202C
:10117000034A182303FB00239A6A586A801A7047AF
:1011800040060020FFF748BF08B5FFF7FBFF08BD8A
:101190000023C0E900337047036823B901600023CE
:1011A00041600B60704743681960F8E7006870475A
:1011B00003680BB11A680260184670470020704738
:1011C00007B502A9002241F8042D084803F07AF877
:1011D00010B100F01BFA0190019818B1012343608F
:1011E0000023038103B05DF804FB00BF70070020FB
:1011F00001F096B808B500F0F1F90248BDE80840E2
:10120000FFF7C6BF280400202DE9F8431C4BBFF3AD
:101210005B8F53E8004F621C43E800210029F8D19E
:10122000BFF35B8FBCB90423282216491648174D1B
:10123000DFF8689003F034F8154B164A1A604FF443
:10124000004000F07BFD144B5B1B1F09A0462346AA
:101250000126BB4201DBBDE8F8836A685C1C14719F
:101260002B7B4BB12B689A6802B190476A6889F86A
:101270000060C2F80080567123461035E9E700BFD0
:1012800024040020C007002054070020EC50000078
:10129000C81C0020F1110000FC5000001C040020BC
:1012A000234B2DE9F0410546187810B34FF0200389
:1012B000EFF3118483F311881E48FFF779FF064688
:1012C00084F3118878B1BFF35B8F1B4B53E8002F79
:1012D000013A43E800210029F8D1BFF35B8F55B1F3
:1012E000304600F0FFF91348FFF760FF003018BFE9
:1012F0000120BDE8F081114C114BDFF848801B1B29
:101300001F09BD42ECDA63685B7973B17389B27A05
:101310009B0908EBC303197902F00703994204D330
:10132000236831461B682046984701351034E8E7AA
:101330001C0400202804002020040020EC500000A1
:10134000FC500000C4500000184B70B51B68418170
:1013500005469847164CE860BFF35B8F54E8003FA2
:10136000013344E80032002AF8D1BFF35B8F4FF01D
:101370002003EFF3118683F311880E482946FFF707
:101380000BFF86F311880C4B1B7823B10020BDE8BE
:101390007040FFF785BF23680A2B06D1074B1868FA
:1013A00018B1BDE8704003F0C9BA70BDC81C002078
:1013B00020040020280400203004002034040020F1
:1013C00070B504460E461546FFF7FAFE58B10461A3
:1013D000447A4661012262F3071444722946BDE84B
:1013E0007040FFF7B1BF70BD2DE9F041054688465A
:1013F00017461E46FFF7E4FE60B10561457A0223F9
:1014000063F307154572C0E905873146BDE8F04131
:10141000FFF79ABFBDE8F0812DE9F84305468946FC
:1014200090461F46BDF82060FFF7CAFE68B105610F
:10143000457AC761032363F307154572C0E9059830
:101440003146BDE8F843FFF77FBFBDE8F8830000F1
:10145000F8B50D4F3D7865B90C4C0D4E361B36096D
:10146000B54207DB01233B700020FFF719FF00287E
:10147000FAD1F8BD63685B791BB1236820465B68CD
:10148000984701351034EBE730040020EC500000A1
:10149000FC50000008B5FFF7B7FE03F075FA094AE3
:1014A000106028B1084B1B68092B01DD03F046FAD8
:1014B0000020FFF7F5FE0028FAD14FF47A7003F010
:1014C000FDF9F5E73404002020040020044A054B10
:1014D0009B1AB1EBD30F34BF52F831000020704794
:1014E000C4500000EC500000054B984205D37833FF
:1014F00098428CBF0020012070470020704700BF39
:10150000C407002007B504380190BFF35B8F50E893
:10151000003F5A1E40E800210029F8D1BFF35B8F3D
:10152000012B03D101A9034802F0F4FE03B05DF8DA
:1015300004FB00BF540700202DE9F8431C46038933
:101540009DF82070DB08A3420E4603D800231360E9
:10155000BDE8F88311682144994284BF191B1160CA
:101560000C2BD2F8009028D9072CD0F814802BD857
:10157000183008234B4528BF4B461D4620441A46C9
:10158000FFB1314601F050FAA9EB05092E44B9F13B
:10159000000FDDD0C4F11C054D4528BF4D46201D70
:1015A00040442A46BFB1314601F03EFAA9EB050995
:1015B000D8F800802E440024E9E714304FF00008EA
:1015C000D8E701463046DDE7083C1B2CDFD9D8F8C8
:1015D00000801C3CF9E701463046E5E720231A4627
:1015E0000149024802F05CBE600B00207007002039
:1015F0000430BFF35B8F50E8003F013340E8003216
:10160000002AF8D1BFF35B8F7047000073B502ACBE
:10161000002344F8043D084E0120FFF741FE00225C
:1016200005462146304602F04DFE08B1002DF3D1AB
:10163000019802B070BD00BF70070020407A000919
:101640007047437A1B098B4216D9032B03D800EB52
:10165000810148697047012903D800EB810188693D
:10166000704743690239062903D803EB81014868B2
:10167000704707391B68F6E7002070477FB5047A8A
:10168000457A019014F001044FEA151510D0019B22
:101690001A7A920706D504AC5B6944F8043D104DF4
:1016A000039BB3B901A90E4802F034FE04B070BD2B
:1016B000002DECD0AC420198E9D22146FFF7C1FFE2
:1016C0000646FFF711FF10B13046FFF71BFF01344C
:1016D000F0E71E682146284602F01CFE0396DFE76D
:1016E000700700200346021DBFF35B8F52E8001F06
:1016F000013942E8001CBCF1000FF7D1BFF35B8F4A
:101700005B680BB9FFF7BABF70470069704713B544
:1017100000240094FFF710FF02B010BD0EB403B513
:1017200003AB014653F8042B0448019301F052FA2D
:1017300002B05DF804EB03B0704700BF651700000E
:10174000436870B51C6805460026D5E9012021468E
:1017500030442B6852689847241A0644F5D16B68C8
:101760001C6070BD08B5D1E901321B68D0544A68CD
:10177000136801331360CA68934202D10846FFF729
:10178000DFFF002008BD00002DE9F04F0B7A93B079
:1017900003F00503052B05460C4609927ED012F096
:1017A0000206134602F0010802F0080706D05E07A1
:1017B000CA6848D4CC49FFF7B1FF0646B8F1000F1C
:1017C0000AD0A37AC94A03F0070352F823201AB1BA
:1017D000C7492846FFF7A2FFA37AB4F80A80C3F3EB
:1017E000C2094FEA98184FB103F00703C14AC24932
:1017F00052F823202846FFF791FF07464146484606
:10180000FFF764FEBD4902462846FFF787FF0744FD
:101810003E44237AD90700F1FC812046FFF775FF8B
:1018200006462046FFF70AFF0A2847D8DFE810F0EF
:1018300038003D006A007A009000AC00CF00F7004D
:1018400026017401AF01AE4B1E68002EB6D0AD4B21
:101850004FF4616E1968B2FBF1F14FF47A7CB1FB81
:10186000F6F3B3FBFEF20EFB123E06FB13130CFB6A
:1018700003F14FF03C09B1FBF6FA06FB1A110CFB21
:1018800001F1BEFBF9F3B1FBF6F609FB13E10091A0
:10189000CDE901A69C49FFF741FF8EE70026B8E796
:1018A00031462846FFF73AFF08E000212046FFF7BF
:1018B000C8FE314602462846FFF730FF237A03F080
:1018C0000503052B18D0099BD9070BD5A37A874AA6
:1018D00003F0070352F8233023B18C4A8449284689
:1018E000FFF71CFF099BDA0606D49B064CBF88490C
:1018F00088492846FFF712FF2846FFF721FF13B05B
:10190000BDE8F08F00212046FFF79BFE012107462E
:101910002046FFF796FE3A46034631462846FFF733
:10192000FDFECBE700212046FFF78BFE0121074695
:101930002046FFF786FE022180462046FFF781FE03
:10194000434600903A4631462846FFF7E7FEB5E7A2
:1019500000212046FFF775FE012107462046FFF7CC
:1019600070FE022180462046FFF76BFE0321814670
:101970002046FFF766FE4346CDE900903A463146E1
:101980002846FFF7CBFE99E700212046FFF759FED6
:10199000012107462046FFF754FE022180462046DB
:1019A000FFF74FFE032181462046FFF74AFE042140
:1019B00082462046FFF745FECDF80090CDE901A014
:1019C00043463A4631462846FFF7A8FE76E700210F
:1019D0002046FFF736FE012107462046FFF731FE7D
:1019E000022180462046FFF72CFE03218146204637
:1019F000FFF727FE042182462046FFF722FE05213D
:101A000083462046FFF71DFECDE9009ACDE902B0DE
:101A100043463A4631462846FFF780FE4EE700210E
:101A20002046FFF70EFE012107462046FFF709FE7C
:101A3000022180462046FFF704FE0321814620460E
:101A4000FFF7FFFD042182462046FFF7FAFD05213E
:101A500083462046FFF7F5FD06210A902046FFF752
:101A6000F0FD0A9B0490CDE902B3CDE9009A43460C
:101A70003A4631462846FFF751FE1FE7002120462F
:101A8000FFF7DFFD012107462046FFF7DAFD0221BF
:101A900080462046FFF7D5FD032181462046FFF70B
:101AA000D0FD042182462046FFF7CBFD0521834669
:101AB0002046FFF7C6FD06210B902046FFF7C1FD2B
:101AC00007210A902046FFF7BCFD0B9B0A9A059060
:101AD0000492CDE902B3CDE9009A43463A46314635
:101AE0002846FFF71BFEE9E6EC520000D852000042
:101AF0001153000038530000145300001A53000023
:101B0000380400203C040020F5520000305300004F
:101B10001F5300001E53000000212046FFF791FDD7
:101B200001210C902046FFF78CFD02210B902046EE
:101B3000FFF787FD032107462046FFF782FD0421BA
:101B400080462046FFF77DFD052181462046FFF7B0
:101B500078FD062182462046FFF773FD0721834664
:101B60002046FFF76EFD08210A902046FFF769FD29
:101B70000A9B0690CDE904B3CDE9029ACDE900783D
:101B8000DDE90B3231462846FFF7C8FD96E6002115
:101B90002046FFF756FD01210D902046FFF751FD2D
:101BA00002210C902046FFF74CFD03210A902046AD
:101BB000FFF747FD042107462046FFF742FD0521B8
:101BC00080462046FFF73DFD062181462046FFF76F
:101BD00038FD072182462046FFF733FD0821834662
:101BE0002046FFF72EFD09210B902046FFF729FD27
:101BF0000B9B0790CDE905B30A9B0093CDE9039AAF
:101C0000CDE90178DDE90C3231462846FFF786FD43
:101C100054E6237A03F00503052B10AF14D10026F8
:101C2000EB6810933A463346A9682046FFF76FFDEC
:101C30006B68109A1A602846FFF782FD109B1E44BD
:101C4000002BEDD134492CE62046FFF75EFD3349E9
:101C5000DFF8E090DFF8E0B002462846FFF75EFDCF
:101C60004FF0000812AA082342F80C3D39464346BB
:101C70002046FFF74CFD0F9B002B36D0099BDA0660
:101C800006D498064CBF264926492846FFF746FD4C
:101C90004FF0000A56452EDC4FF0000A0F9B9A4584
:101CA00030D217F80A2059462846FFF737FD0AF1C7
:101CB000010ABAF1080FF1D11B492846FFF72EFDA2
:101CC0004FF0000A0F9A924521D217F80A20A2F18C
:101CD00020015F2928BF2E2214492846FFF71EFD48
:101CE0000AF1010ABAF1080FECD10F9B072B7FF61E
:101CF000E5AD9844B6E749462846FFF70FFD0AF1DF
:101D0000010AC7E70A492846FFF708FDCFE7494619
:101D10002846FFF703FDE3E79E5300001153000040
:101D20001F5300001E5300002B5300002D530000D2
:101D3000275300002953000021530000084A10B522
:101D40000123084C13600021A04204D801B11360A4
:101D5000054B186010BD40085B000121F4E700BF8F
:101D60003C04002040420F0038040020034B0022B6
:101D70001A60034B034A1A60704700BFF804002042
:101D8000EC04002054040020014B01221A6070472B
:101D9000F804002010B508460C46FFF729FC214640
:101DA00004480F22FFF7F0FC2046BDE81040FFF783
:101DB00099BC00BF785300002DE9F84F414B1B68D8
:101DC0008046894653B9404EDFF810A1054608EB1E
:101DD00009039D4210D3A5EB08000BE00A4601461B
:101DE0000020FFF791F905460020FFF7C1F9002810
:101DF000FAD12846BDE8F88F15F8013B32680D2B63
:101E00005AD1324F13703B68314CDFF8D4B0002BFD
:101E100013DDDBF8003083B9121B214604F11700F3
:101E200000F0EBFD17222B49204600F0FDFD336842
:101E3000173333600123CBF80030DBF8003063B197
:101E40003B68632B1A46A8BF6322092B23DC2021A1
:101E500002F1300361752375E1744FF0FF311E48C4
:101E600002F080FA32681A49C4F1010422440020C9
:101E7000FFF702F90446184802F0D6FABCB93B68ED
:101E800001333B60124B396803F117020029C8BFC8
:101E9000134633609BE70A2392FBF3F103FB112304
:101EA0003033637530313E232175E374D5E7002369
:101EB0003B60CBF80030E5E752453EBF511C316036
:101EC000137084E7F8040020EC0400204C04002088
:101ED0005404002088530000081E0020EA0400205B
:101EE0005004002010B5044C2046FEF76FFD20463C
:101EF00001F05AFA002010BDFD1E00002DE9F3414B
:101F0000164F174D8DF80700064603244FF0FF319A
:101F1000384602F027FA01220DF107010020FFF7F1
:101F2000F3F88046384602F07FFAB8F1000F05D08A
:101F300001232B70304602B0BDE8F0812B78002BD6
:101F4000F8D0013C07D002F095FD0028DED1022038
:101F500002F0B4FCDAE72C70ECE700BF081E0020AA
:101F6000FC04002010B54FF02003EFF3118283F33F
:101F70001188114C237823B982F311886FF0440043
:101F800010BD013BDBB2237023B182F311886FF0E7
:101F90000F00F5E7094B1878012128B1217082F371
:101FA00011886FF00A00EBE7197082F31188044A78
:101FB00011601870E4E700BFFF040020FE04002059
:101FC0000400004008B500221046012100F084FB07
:101FD000002000F05DFB002008BD0000F8B54FF0C8
:101FE0002002EFF3118382F31188264A1078441CF3
:101FF000147070B183F311884FF08043D3F80C3420
:1020000003F00113B3F1011F0CBF00206FF0430078
:1020100007E01D4D2F782FB1107083F311886FF0FA
:102020000A00F8BD01262E7083F311884FF080441A
:1020300019B3384600F03CFBC4F80071D4F80433FF
:10204000C4F804632660D4F8002192B10022C4F8D9
:1020500000210E4A13F0010F4FF0010308BFC4F82E
:1020600008330020C2F8803100F012FB00232B70EF
:10207000C2E720BF40BF20BFE5E7C4F800112660DB
:10208000F4E700BFFF040020FE04002000E100E0B0
:1020900038B54FF02002EFF3118382F311881D4D04
:1020A0002A788AB183F311884FF08042D2F81C3429
:1020B000D2F8182403F0030343F48033934314BF8E
:1020C0006FF04300002038BD01242C7083F3118889
:1020D0004FF08043104DC3F80421C3F818152C604D
:1020E00011F003014FF01805C3F80853C3F80C2191
:1020F000C3F81021D8D11022C3F83825C3F80453EF
:10210000C3F80443FFF76AFF0028CDD1034BC3F89F
:102110000041C9E7FD0400200800004000E100E0A4
:10212000F8B54FF080430546D3F808C1D3F804232F
:10213000D3F80C44D3F80071D3F80401D3F80C1190
:10214000D3F8106102F00102BCF1000F03D04FF090
:10215000000CC3F808C127B14FF080430027C3F833
:10216000007152B1E30308D54FF08043154C0122B2
:102170000227C3F8082327601A6120B14FF080437B
:102180000022C3F8042159B10E4B4FF080440021C6
:1021900019602846C4F80C11FFF7E4FE01236361BF
:1021A00076B14FF0804300210124C3F81011284676
:1021B000C3F80443FFF712FF10B9034BC3F8004103
:1021C000F8BD00BF340C004000E100E0084BC3F84C
:1021D0004005D3F80435C01A20F07F40054B023883
:1021E000984282BF044B4FF40032C3F8002170477D
:1021F00000100140FDFF7F0000E100E010B5134B2F
:10220000134CD3F804052268801A20F07F40B0F503
:10221000A37F13D90F49096840F24713B0FBF3F0CD
:10222000884228BF084603FB00230B4A23F07F4364
:10223000236013680344136002F07CFD2068BDE84E
:10224000104000F24710FFF7C1BF00BF001001406F
:10225000080500200405002000050020024B002294
:10226000C3F84021FFF7CABF0010014070470020AB
:102270007047000008B5074B0022C3F84021064B09
:102280004FF40032C3F88021FFF7B8FF034B01225F
:102290001A6008BD0010014000E100E004050020C4
:1022A00070B5194801F0ECFE50B34368174D1B6838
:1022B00001219847164B00241C60164B01261E6016
:1022C00040F24713C5F80845C5F840354FF4803350
:1022D000C5F84433C5F804330F4BC5F840414FF4FB
:1022E0000032C3F8802131462246112000F0F4F973
:1022F000112000F0CDF9094B20461E602E6070BD04
:102300004FF0FF30FBE700BFC85300000010014052
:10231000080500200405002000E100E0081001404D
:1023200008B502F053FD40F247135843034BD3F86E
:1023300004351B1A23F07F43184408BD00100140E8
:1023400004488168406A884203D003494FF08052B4
:102350000A6070478C07002004ED00E00448002369
:102360002021C2180133272B82F80013F9D17047BE
:1023700000E100E0084A094993680968996608493C
:1023800058664B6843F080534B60002383F31188F9
:102390009368986E704700BF8C070020885A000031
:1023A00000ED00E0202080F311880D498A684FF08D
:1023B00028001044EFF3098C80E8F01F094F4FF01C
:1023C00000664A6A8A603E60506E0023536680F35E
:1023D000118802F1280090E8F01F8CF309887047FB
:1023E0008C07002004ED00E01EF0040F0CBFEFF39B
:1023F0000880EFF30980816931F8021C11F0FF01B8
:102400000229FFD000B500F0FDF900BD38B5194C28
:1024100005461948FEF722FCA36AD90602D51748DB
:10242000FEF71CFCA36A1A0702D51548FEF716FC36
:10243000A36A9B070ED51348FEF710FC616BA36AD5
:10244000180607D51048FEF709FC1DB1A36A23F052
:102450008003A362074CA26AD20702D50B48FEF79D
:10246000FDFBA36A9B0602D50948FEF7F7FB002097
:1024700038BD00BF00ED00E0375500004E550000AC
:1024800060550000745500008D550000A4550000F3
:10249000C455000038B51B4C05461B48FEF7DEFB53
:1024A000A36AD80404D51948FEF7D8FB002038BD2C
:1024B000A36A190501D51648F6E7A36A9A0514D54B
:1024C0001448FEF7CBFBA16BA36A1B0407D5124887
:1024D000FEF7C4FB1DB1A36A23F40043A362094BBA
:1024E0009B6A5805E2D50D48DEE7A36A5905FAD480
:1024F000A36ADA0501D50A48D6E7A36A9B04D5D5B5
:102500000848D1E700ED00E0E85300004E55000018
:1025100060550000FF530000195400002F540000C4
:102520004B540000C455000010B5194C1948FEF773
:1025300095FBA36A9A0102D51748FEF78FFBA36AA1
:10254000DB0102D51548FEF789FBA36A180302D503
:102550001348FEF783FB0E4CA36A590302D51148BA
:10256000FEF77CFBA36A9A0302D50F48FEF776FBC1
:10257000A36ADB0302D50D48FEF770FB044A936A99
:102580006FEA03436FEA13439362002010BD00BF5C
:1025900000ED00E0F45500000D560000215600004B
:1025A0003C5600005B560000815600009C5600001F
:1025B00070B5284D6C68C4F308040646FEF748FF62
:1025C000E31E092B3AD8DFE803F0053335303939FB
:1025D000393939372048FEF741FBEB6A9A0703D5B2
:1025E0001E48FEF73BFB02E0EB6A5B0005D40020CF
:1025F0003146BDE8704000F0D1B81948FEF72EFB17
:10260000184B1B782BB10120FFF700FF0628EFD1F4
:1026100070BD154B1B781BB10120FFF73BFFF5E7A1
:10262000124B1B889BB2002BE1D0FFF77DFFEDE73B
:102630000020E9E70020F0E70D48D2E70D4B0E49F6
:102640000E48A4F110020F2CC8BF1946FEF706FB76
:10265000CDE700BF00ED00E092540000AA54000056
:10266000CC54000028ED00E029ED00E02AED00E068
:10267000EC5400007954000064540000235500001D
:10268000024A536943F010035361704700ED00E0C4
:1026900043B2002B08DB012200F01F0002FA00F019
:1026A0005B09024A42F82300704700BF00E100E0E6
:1026B00043B2002B0DDB01225B0900F01F0002FA80
:1026C00000F02033034A42F82300BFF34F8FBFF3DB
:1026D0006F8F704700E100E043B2002BA8BF03F109
:1026E000604301F101014FEA4111AEBF03F56143BF
:1026F00000F00F00034BC9B2ACBF83F800131954AC
:10270000704700BF14ED00E000F034B8F8B50C4697
:1027100016461F4604220A9B0999054602F062FAF2
:10272000A6F1200121440C4A21F00701002322F0E8
:102730000102C5E91333C5E916468A61069A4A6063
:10274000079A8A60089ACA604FF080720F60CA6167
:10275000A9646B66F8BD00BF05090000014910229D
:102760000A60704710ED00E0404080F3118830BFF0
:10277000704700BF404080F31188DFF81CC0DCF8D0
:1027800000C01CF4006C0CBFEFF30880EFF309806D
:1027900000B5FFF70DFF00BD04ED00E038B50446BD
:1027A0000D46FEF755FE052C1AD8DFE804F0031994
:1027B000191315170D48FEF751FA02F0E5F8AA694A
:1027C00001460B48FEF74AFA29462046BDE8384044
:1027D00000F01CB80748EEE70748ECE70748EAE7CF
:1027E00021460748FEF73AFAE7E700BFC85600005F
:1027F00066570000E85600000E57000028570000FA
:102800004357000001460068FFF7C8BF052810B510
:102810000CD002F02FF960B102F02CF90C490D4BED
:10282000002808BF19460C48FEF718FAFFF79CFF6E
:10283000FCE702F02FF90028EED1084C0848A16807
:10284000FEF70CFAA068BDE8104000F00BB800BF1E
:10285000A2570000A6570000B75700008C070020C1
:10286000D757000038B505464FF02003EFF3118429
:1028700083F3118802F048F90A4B9B68AB420BD1F5
:10288000094B5A68C2F3080212B92046FFF772FDDD
:102890005A6842F080525A602046BDE8384001F044
:1028A0009DBE00BF8C07002000ED00E000B572B6B1
:1028B0000B4A106A00281EBF0021116201F006FCBD
:1028C00062B6EFF30580A0F110004FEAC0000549A1
:1028D000014409C998475DF804EBFFF731BD0000DA
:1028E0008C070020DC000000202080F311880648BF
:1028F0004FF40061401880F30988022080F31488A7
:10290000BFF36F8F00F006F8A014002030BFFFF770
:10291000FDBF00BF08B5074B074A23F07F03936054
:10292000BFF34F8FBFF36F8F01F0EAFB01F0F2FBB3
:1029300001F014FC0000000000ED00E008B5FFF716
:10294000E5FFBDE80840FFF7FBBC0000034B052294
:102950005A60BFF34F8FBFF36F8F704790ED00E069
:10296000114A10B51468082C1BD810495068002370
:102970004B609C4200F10C0003D1FFF7E7FF002001
:1029800010BD8B6050F80C2C22F01F0242F0100298
:102990001A43CA6050F8042C42F001020A61013364
:1029A000E7E74FF0FF30EBE7A41C002090ED00E0DC
:1029B0000139034611F8012F0AB91A70704703F85C
:1029C000012BF7E7C9B202788A42034600F1010001
:1029D00004D0002AF7D1002918BF002318467047F9
:1029E0000138013910F8013F11F8012F934202D14B
:1029F000002BF7D11A46981A7047431A934210B524
:102A000000EB020308D3013902469A420BD011F8B9
:102A1000014F02F8014BF8E70A4412F8014D03F8A0
:102A2000014D8A42F9D110BDF0B581EA0004A50735
:102A300003460BD0013B0A4491421DD1F0BD002A50
:102A4000FCD011F8014B03F8014B013A9C07F6D179
:102A50001D1F0C468F183E1B032E08D894086FF0DC
:102A6000030505FB0422A40023442144E2E754F8B3
:102A7000046B45F8046FEEE711F8014B03F8014FC2
:102A8000DAE7F0B5C9B203469C070FD141EA012449
:102A900044EA04441D469F187E1B032E0CD894085C
:102AA00003EB840413449C4209D1F0BD002AFCD0FE
:102AB00003F8011B013AE7E745F8044BECE704F89B
:102AC000011BF0E770B50446B1FBF2F602FB1611EC
:102AD000CDB209298CBF272100213035294404F8C3
:102AE000011B3146002EEFD13021221A934207DC20
:102AF0002346002103F80119834204D8104670BD13
:102B000004F8011BF1E71978047803F8014900F88B
:102B1000011BF1E7D0E900232DE930485FEA530CAF
:102B20004FEA320B02F001041BEB04024FF00005E8
:102B30004CEB0503C0E90023BDE83088D0E9002351
:102B40002DE9F04F052112F102084FF0000643F184
:102B50000009B8EB0608B9FBF1F501FB05F769EBD5
:102B600007094FEAD80646EA49760024B6FBF1FC8D
:102B70004FEACC06A2194FEA5C77C24645EB070341
:102B80001446A6FB0189BAEB08021D46B2FBF1F21E
:102B9000A41845F10005C0E90045BDE8F08F0B68B9
:102BA000002B2DE9104813DD02684468013B0B60DF
:102BB0000A21A2FB01BC01FB04CC5A462CF0704355
:102BC000C0E900234FEA1C713031C8B2BDE810885B
:102BD0003021FAE72DE9F04FC9B0CDE90C011F46CD
:102BE0000023934604939BF800000BF1010548B1C4
:102BF00025287BD0DDE90C319847013006D14FF014
:102C0000FF330493049849B0BDE8F08F049B01336F
:102C1000CDE90437AB46059FE5E7232C5FD054D8B8
:102C2000002CEFD0202C08BF4FF001095D46AB46C9
:102C3000BF481BF8014B2146FFF7C4FE0028ECD12A
:102C40002A2C5BD13A680392002AB8BF524207F19E
:102C50000403B8BF03926C78BCBF0122069205F151
:102C6000020B1F46039BC92B28BFC82303932E2C9E
:102C700069D19BF800302A2B62D13D680BF1010B22
:102C80000437C92D9BF80040A8BF4FF0FF350BF16A
:102C9000010B2146A748FFF795FE18B19BF80040AD
:102CA0000BF1010B672C7CDC652C80F2E080472C5B
:102CB0004CDC452C80F2DB80002CA3D0252C00F0CE
:102CC0003583C82C40F33C8399E72D2C0BD0302C56
:102CD00007D02B2C079B08BF01230793A6E70126EB
:102CE000A4E70294A2E7012306939FE74FF00009AF
:102CF00020230293CDE906994E4698E7A4F13003CC
:102D0000092B0390B3D80A22AB461BF8010BA0F1A4
:102D10003003092B0446A5D8039B02FB0300A0F156
:102D2000300303935D46EFE700FB0535303D9346E6
:102D30005A4612F8013BA3F130010929F4D9A0E762
:102D400000250A20F4E74FF0FF35A2E7632C6FD08F
:102D500032DC582CB5D13B1D05933968002E00F0AC
:102D6000DC8247F63003ADF854300DF156072B46A0
:102D700010223846FFF7A6FE582C06D10DF153025B
:102D800012F8013F002B40F0CA820DF15408002ECA
:102D9000A7EB0808404414BF4FF002094FF00009A8
:102DA00029E0702C00F094822BDC6E2C00F0538212
:102DB00000F35782692C84D13C683B1D002C05939D
:102DC00042DA2D23B4F1004F8DF8543041D06142E6
:102DD0000DF155082B4640460A22FFF773FE079B6C
:102DE000804415A8A8EB0000002B3DD1B9F1000FDD
:102DF00001D14FEAD4790135029B18BF20230293F9
:102E000080E0752C00F08082782CA4D0732C7FF4A5
:102E100058AF3B1D3968059300268B5D002B00F0F1
:102E200066820136C82EF8D1002D80F2628266E2F9
:102E30003B1D05933B688DF8543000238DF85530C9
:102E400001264FF000091CE2079B23B12B238DF8CC
:102E500054302146BCE7B9F1000F01D02023F6E73A
:102E600021460DF15408B5E7DDF81C90C3E707379C
:102E700027F0070707F10803D7E900C70593FB020E
:102E800043EA5C5323F000414FEACC220B46C7F3E0
:102E90000A58CDE9102340F2FF7310469845CDE95A
:102EA0000001604648D10028DDE9001277F10003F7
:102EB000B8BF2D2315A8B6BF8DF8543003460DF1C9
:102EC00055030A43A4F1410403F1030825D1192C49
:102ED0001DD849221A704E225A7046229A7000223A
:102EE000DA70079BA8EB0000002B40F05582B9F187
:102EF000000F07D19DF85410A1F12D03D3F1000963
:102F000049EB0309C8283FF77AAE0646B9E16922C2
:102F10001A706E225A706622E0E7192C99BF4E2271
:102F200041216E22612194BF1A701A705970D5E741
:102F30000058000006580000DDE90023462C42EA54
:102F4000080243EAE87308BF6624134343D0DDE96F
:102F50000023002843F00043CDE9102377F100035C
:102F6000A8F2FE3839DA2D238DF854300DF1550AC8
:102F70000023009318F1020F3EDBB8F1000F79DC5B
:102F800010A808F10108FFF7C5FDB8F1040FF7D14B
:102F9000002D24F02003B8BF0625472B40F0978072
:102FA000002E40F092802B1C18BF01230893009B39
:102FB000033304DB009A6B1C9A4240F38D80672C2C
:102FC0000CBF6524452405F10108102398450F9393
:102FD000A8BF984689E04FF00008079B0BB12B2350
:102FE000C2E7B9F1000F01D02023BDE70DF1540A6B
:102FF000BEE710A8FFF78EFDDDE9107C00230B93E0
:10300000CDF828C0DDE90A01A84A00238B4208BF99
:10301000824208F10108ECD30522A7FB0201CDE9A9
:103020000801099B02FB0C330993DDE90823CDE974
:103030001023009B013B00934FF0000C099A0023E2
:1030400000216FF00040994208BF904207D2BCF1C6
:10305000000F8FD0DDE90823CDE910238AE7DDE9F1
:10306000082392185B41CDE9082308F1FF384FF09F
:10307000010CE3E710A8FFF761FD009B013300930B
:10308000DDE91023CDE9082308F1FF384FF0000CEB
:10309000099A002300216FF00040994208BF904236
:1030A00008D2BCF1000F3FF468AFDDE90823CDE999
:1030B000102362E7DDE9082392185B41CDE908237C
:1030C00008F1FF384FF0010CE2E700236EE7002320
:1030D000662C08937FF477AF009B13EB05084BD564
:1030E00010230F9366244FF0000848A900224FF0E8
:1030F000006361E9362318F1FF383FD2DDE9102380
:10310000DDE91201171843EB01083A464346CDE9C1
:10311000102308F070420023134308D010A8FFF7D3
:103120000DFD10A8FFF7F6FC009B01330093662C01
:103130000AF1010840D1009B002B29DD5344984639
:103140000FA910A8FFF72BFD0AF8010BC245F7D114
:103150000023009306B95DB12E2388F8003046465F
:1031600008EB05034FF0300AB34215D10135A844EE
:10317000089B002B39D160E0662426E708460A91B7
:10318000FFF7DCFC0A990846FFF7C4FC0A99B2E78E
:1031900030238AF80030DDE7009A2AB1013286F840
:1031A00001A000920136DFE70FA910A80A93FFF7EC
:1031B000F6FC0A9B7070F5E70FA910A8FFF7EFFC6B
:1031C000302818BF009B8AF800001CBF03F1FF33B2
:1031D000009306B93DB10AF102082E238AF80130A6
:1031E000454445452ED1089B43B118F8012C302A9F
:1031F00008F1FF332DD02E2A08BF984624F0200373
:10320000452B1AD1009B88F80040002BBBBF5B42C6
:1032100000932B232D2388F801300A22009B93FB77
:10322000F2F303F1300188F80210009902FB131742
:10323000303788F8037008F10408002388F800305C
:1032400015A84EE60FA910A8FFF7A9FC08F8010B76
:10325000C7E79846C9E73B1D05933B68049A1A6087
:10326000D9E43B1D0593396816B330238DF85430EB
:1032700059BB0135029B8DF8551018BF2023894694
:103280000293039BB34240F38580069B15AD002B50
:1032900058D02023039AAB550136B242FAD1DDE96A
:1032A000033215AC13441D46A41A6FE03233333396
:1032B00015A80DF154082B460822A0EB0808FFF7CB
:1032C00001FC40444FF0000995E50DF15500F0E791
:1032D0003B1D059347F63003ADF854303968082399
:1032E00010220DF15600FFF7EDFB0230EAE7002D4A
:1032F00002DBAE42A8BF2E46002E3FF48CAC324615
:1033000015A8FFF791FB9CE53B1D05930A222B4670
:10331000396815A8FFF7D6FBD4E715AF27E5A3F169
:10332000610119299CBF203B137029E50D990C9B65
:103330002046984701303FF462AC049B013304936C
:10334000059768E4039B9C1B721C28192946FFF70C
:1033500054FB069B029A202A18BF4B4606931C4436
:10336000069BA3429BDA069B1A46029BAB5413466C
:1033700001330693F4E7049B0D99E05C0C9B98479E
:1033800001303FF43CAC049B01330493049BAB42FB
:10339000F1D140E4039682E7DDF81C90B2E500BF6E
:1033A0004FF0FF3070470000014B1860704700BFBE
:1033B000CC1C0020022902D1024B1B6818474FF099
:1033C000FF307047CC1C0020FFF7F4BF0FB407B5E7
:1033D00004AB022153F8042B04480193FFF7FAFBD6
:1033E00003B05DF804EB04B0704700BFC9330000C0
:1033F000087970B500F01F04072C3AD80B78092B18
:1034000026D8DFE803F0393B051B1D251F212523A6
:1034100002234A78032A60D0042A31D001234FF0D6
:10342000000263F302024149414B42485B1A6FF3C9
:10343000C502DB0863F38F123F4918E00323E8E776
:103440000423E6E70523E4E70623E2E70723E0E7B2
:1034500001234FF0000263F302023449344B374832
:103460005B1A6FF3C502DB08334963F38F12FDF774
:10347000A7FF6FF015002FE00023CAE70123C8E77C
:1034800000264A8844F20A05AA4209D027D844F205
:103490000305AA4245D044F20505AA4243D082BBA7
:1034A0000222C0F340101B0243EA005343EA0633F2
:1034B00043EA0243220102F1804202F5E0428D79A3
:1034C000C2F818351E4BC2F8145500201C44C2F82F
:1034D00010054B7984F8743070BD0126D1E744F2B1
:1034E0001405AA4209D044F22805AA4207D044F2A2
:1034F0000F05AA4205D10322D3E70422D1E7052212
:10350000CFE701234FF0000263F302020749084BA3
:103510000C485B1A6FF3C502DB0863F38F12064990
:10352000A5E70022BDE70122BBE700BFC4500000B1
:10353000C4500000825800000B5800005F58000083
:10354000D01C0020AA580000034A0123C2F800350D
:1035500013605360704700BF0070004013B50D4BFF
:1035600000241C601B680193019B0B4B0222C3F8D3
:1035700004230720FFF78CF8072022460121FFF7DC
:10358000ABF80648836B13B9303001F003FA002022
:1035900002B010BD0471004000700040D01C00203B
:1035A000F7B5446814B134F0FF0211D001234FF095
:1035B000000263F302028749874B88485B1A6FF366
:1035C000C502DB08864963F38F12FDF7F9FE1CE0A4
:1035D000844D854F114624FA02F313F001033ED0C7
:1035E000BB1893F87460AEB901214FF0000361F38A
:1035F000020378487849091AC90866F3C50361F3DC
:103600008F137A487649FDF7EFFE6FF015052846CF
:1036100003B0F0BD05EB021E90F811C0DEF81835BE
:103620001CF1000C18BF4FF0010C23F0807343EA2B
:103630000C63CEF8183502F151031B010131EE5035
:10364000C9B20132082AC6D1027CA2F10803062BB6
:1036500024D8DFE803F0332309233523210002F1C6
:1036600051063601AB51ECE701225E4B0129C3F84C
:10367000F025427C26D97AB301234FF0000263F390
:1036800002025449544B5A485B1A6FF3C502DB08D7
:1036900063F38F12574998E70322E6E701214FF0C1
:1036A000000361F302034B484B49091AC9086FF341
:1036B000C50361F38F1350485049A4E70022D4E7B3
:1036C0000222D2E7082A36D8DFE802F0450527298A
:1036D0002B2D2F31330001220568C3F8F4254B0050
:1036E00015B12A8902FB0333C2689A4235D20121FF
:1036F0004FF0000061F30200364C3749091BC9083E
:103700006FF3C50061F38F10ADF800003C493D48F0
:10371000FDF782FE6FF00B0579E70222DCE703225A
:10372000DAE70422D8E70522D6E70622D4E7072203
:10373000D2E70822D0E701214FF0000361F3020332
:1037400024482549091AC9086FF3C50361F38F138B
:103750002D48284957E70022BEE7224B8268224CB9
:10376000C3F82C26C3F830160021E066216665B345
:103770002B68A4F8701043B3BFF35B8F54E8003F8D
:1037800044E80012002AF9D1BFF35B8FE36E1B6897
:103790001B684FF47A7203F2E733201DB3FBF2F299
:1037A00001F080FB94F8683093B94FF0FF3117486F
:1037B00001F017F9256E94F8683013B1002D3FF42D
:1037C00026AF134801F0E6F821E7FFF7BDFEE9E771
:1037D0000025F0E7C4500000C4500000E858000085
:1037E0005458000000700040D01C00200A5900000E
:1037F000515900003158000028590000225800009B
:1038000042580000AE59000087590000181D0020E2
:10381000001D0020031FBFF35B8F53E8002F511CD6
:1038200043E8001CBCF1000FF7D1BFF35B8F0AB96E
:10383000FFF78ABE6FF00403C365704738B5084CC4
:103840000D4604F130004FF0FF3101F0CAF80023BB
:1038500084F8683063662846BDE83840FFF7A0BEAC
:10386000D01C002070B5094C0D4604F130004FF01B
:10387000FF31164601F0B5F8012384F8683066661A
:103880002846BDE87040FFF78BBE00BFD01C00206B
:103890002F4B1A6813B5002A41D000221A601B680A
:1038A0000193019B2B4C2C4B01211960E16EC3F855
:1038B000F8240B68002B3BD05B68B4F8702023B170
:1038C0009847012815D002282BD0E26EB4F870304A
:1038D000126812899A4224D90133A4F870301F4B20
:1038E000D3F82C26D3F8341689B202EB4102C3F880
:1038F0002C26E36E1B681B6823B902B0BDE810409C
:10390000FFF722BEBFF35B8F54E8003F5A1E44E826
:1039100000210029F8D1BFF35B8F012BEDDC02B051
:1039200010BDE36E1B681B6813B10D4801F0F2FA7D
:1039300094F8683053B1606E10B1002101F05BFB68
:10394000084802B0BDE8104001F024B80648F8E786
:1039500004710040D01C002008700040007000403E
:10396000D41C0020001D0020181D002010B5046884
:103970008068A468C0692468012904D15840C4F84B
:103980000405002010BD003320FA02F04FF00101C1
:1039900018BF012300F001009140834214BFC4F816
:1039A0000815C4F80C15ECE710B504688068A46825
:1039B000C0692468D4F81045012980EA04001CBFBE
:1039C000D04000F001001860002010BD8368186826
:1039D00072B108605A68196002B9596000207047D6
:1039E00010605868814208BF5A600DE002460068C6
:1039F0000028F3D08842F9D10868002AF0D15A682B
:103A00001860914200D1586000230B60E6E7000087
:103A100008B5094B1A786AB90121197006200521E9
:103A2000FEF75AFE0620FEF733FE044B4FF000422D
:103A3000C3F80423002008BD0C05002000600040EE
:103A40000B4A936812689268126810B5D2F8104554
:103A5000D3E905211143D3E902020240D8691B6969
:103A6000584022EA0102604022EA000010BD00BF77
:103A7000B41D0020F7B5234D2B68012B33D1FFF780
:103A8000DFFF06460023204C01279C46D4F8042380
:103A900007FA03F1114214D003F1805202F5C25229
:103AA0009200116801290CD103F5A27054F820008E
:103AB000C2F800C012680092C0F304208140009A4E
:103AC0000E430133082BE1D17EB1104FBB681C6857
:103AD0005CB1A3681E4204D0636832462146384672
:103AE00098472468F4E70026CCE72B68012B06D121
:103AF000FFF7A6FF18B928602B680193019B03B05C
:103B0000F0BD00BF7C61004000600040B41D00209B
:103B1000F7B50368584D9B6884681A79D5F8040393
:103B200001F01F0343EA4213C0B2002202F5A2765D
:103B300055F82660C6F30426B34275D120FA02F682
:103B4000F60771D5900000F1804000F5C040D0F834
:103B5000106526F00106C0F81065012000FA02F297
:103B6000C5F808239A0002F1A042D2F8000720F419
:103B70004030C2F80007D2F80007C2F80007A0687A
:103B8000C84010F001004DD0E068C84010F00100BE
:103B900048D06069C84010F0010052D0A269CA4004
:103BA000D20746D42269E069CA4020FA01F102F046
:103BB000010201F001018A420CBF022101212E4FB6
:103BC000002505F5A27257F8220010F0030032D14B
:103BD000AC0004F1804202F5C0421B02D2F810652D
:103BE00026F4473626F44076C2F8106503F4F853FD
:103BF000D2F8106543EA014104F1804303F5C24362
:103C00003143C2F8101518601B680193019BD2F86C
:103C1000103543F00103C2F81035012303FA05F50E
:103C2000C7F8045303B0F0BD0132082A7FF47EAF19
:103C300098E70321C3E70135082DC2D16FF01200C8
:103C4000F0E72369E469CB4024FA01F1D2F8004798
:103C500024F44034C2F80047D2F8004703F00103CF
:103C600001F001018B420CBF4FF440334FF400339D
:103C70002343C2F80037D5E7006000402DE9F74F35
:103C80008046856803F47040B0F5804F1E464AD0E8
:103C90002DDCB0F5805F3ED0B0F5405F3FD068BB13
:103CA00006F44077B7F5807F3FD0A7F500746342F4
:103CB000634106F0010C4FEA4C07012947EA0C0763
:103CC00018BFD4B247EA002040EA830712BFA146DA
:103CD0004FF01F0900244FF0A04A4FF0010B06F0EF
:103CE0000203A14523D2002003B0BDE8F08FB0F558
:103CF000E04F16D005DCB0F5A04F0ED06FF01500E8
:103D0000F2E7B0F5404F04D0B0F5504FF6D10720A0
:103D1000C6E70620C4E70120C2E70320C0E704206D
:103D2000BEE70520BCE70220BAE70323C1E7D8F8C5
:103D300000209268117904F01F0242EA411202F554
:103D4000E0724AF822700BFA04F2A968002B25D021
:103D50001143A96069690193B0064CBF11439143B7
:103D60006961A96970064CBF11439143A961296932
:103D700070074CBF114391432961E96930064CBF7C
:103D80000A4321EA0202EA6121464046FFF7C0FEEB
:103D90000028A9D10134E4B2019BA2E721EA020183
:103DA000D7E701292DE9F04118BFD4B2876806464C
:103DB00012BF25461F2500244FF00108AC4202D94E
:103DC0000020BDE8F081FB6808FA04F223EA020350
:103DD000FB6021463046FFF79BFE0028F1D10134FD
:103DE000E4B2EBE701292DE9F04118BFD4B28768AE
:103DF000064612BF25461F2500244FF00108AC429D
:103E000002D90020BDE8F081FB6808FA04F21343F0
:103E1000FB6021463046FFF77BFE0028F2D10134DB
:103E2000E4B2ECE703689B68D979034B0020CB40F0
:103E3000C2E90030704700BF0024F40003689A68AC
:103E400013680020C3F80405D279C3F810250822AE
:103E5000C3F80805C3F80022704700002DE9F04FB1
:103E600004688568D4F808E087B09EF8066033B12E
:103E70009A4204D0284605EBC607B8421DD100205F
:103E8000C4B2A64224D8741EE4B2FF2C60D1012330
:103E90004FF0000263F302026849694B69485B1AFC
:103EA000DB086FF3C50263F38F126749FDF788FAE9
:103EB0006FF00B0007B0BDE8F08F4468A14205D059
:103EC00084681CB12C68A24240F0A4800830D4E77A
:103ED000013005EBC00757F8047CB942D0D19EF8F9
:103EE0000470DEF800C02744BF0007F1804000F5F1
:103EF000C040074601900020C7F810059EF805E075
:103F00000EEB440E5FFA8EFA0AF101084FF0010E33
:103F10000EFA08F80EFA0AF948EA090002904FF082
:103F2000A0484A48029FC0F808750EFA01F9C8F87F
:103F30001895C3B9C8F80C9505EBC4040023A36019
:103F400005EBC606AE4260D10123CCF804305AE03E
:103F500005EBC407601EBF68C0B20FB1044694E70A
:103F6000A642BCD893E79A4202D1C8F80895E3E785
:103F70000FFA84FB4FEA8B00C8F80C95049060445C
:103F800000274FEA1248C0F84071039023FA08F066
:103F90000CEB860905900398C9F84071074622FA90
:103FA00008F80598C7F84005C9F84085DFF8A480EF
:103FB0000198CCF80CE04FEACA0748EA012807F15B
:103FC0008047C0F8108507F5F837049850340CEB9B
:103FD0008404C7F81045503600F1804404F5C0440D
:103FE0000CEB86061948C7F81445C7F81865C7F8DA
:103FF0001C45029CC0F80445CCF800E02A6005EBA3
:10400000CB05C5E90113002054E755F8083F002B04
:1040100098D0F8E701234FF0000263F3020207494A
:10402000074B0B485B1ADB086FF3C50263F38F1273
:104030000549FDF7C5F96FF015003BE7C4500000D6
:10404000DC500000305A00000C5A000000F0014023
:104050004F5A00000300130038B5084B53F82040B6
:10406000013053F820502046854204F10C0400D85A
:1040700038BD54F80C3C5B689847F4E7745A00006C
:10408000104B70B5104C05461E469C4204D10E4C98
:10409000B44209D1002412E062681AB122681268A1
:1040A000AA420CD00C34F0E763680BB90C34EFE78C
:1040B000236828461968FEF793FC0028F6D12046AD
:1040C00070BD00BFD81D0020541D0020FEF7D2B8DF
:1040D00008B50A4D4FF02002EFF3118382F31188E7
:1040E00000F0C2FD012102280446D8BF0846FEF7B1
:1040F000BDF82C62FEF738FBECE700BF8C07002010
:104100000248034A0021121AFEF7BBBC000000203F
:10411000BC0700200248034A0349121AFEF784BC78
:10412000A01C00201C1E0020CC5A000008B5022054
:10413000FFF792FF0748FCF791FD0320FFF78CFF84
:1041400000F002FDFCF750FB034A137B23F0010350
:10415000137308BD9C5A0000B805002080B586B0D6
:1041600006AFFEF7FBF8FDF745F8314B83F30888FF
:10417000304B314E314D0024E02283F82220DC7791
:104180001C765C769C765A6A42F4E0225A62FEF70C
:1041900077FAFEF7E3FA2046FFF75EFF0120FFF70C
:1041A0005BFF00F04FFB264B756205930123CDE9C1
:1041B0000343CDE901440094224B23494FF480622C
:1041C000284600F087FC6B7B23F0040213F01B0FE2
:1041D0006A73344605D12B6A013302D1284600F0B8
:1041E0004FFA1A4B1A4E059301220F23CDE90332E1
:1041F0000023CDE9013300934FF4A072154B16490B
:10420000304600F067FC737BE66023F004037373B1
:10421000124BA560C4E906330A4A114B114C83F3D3
:10422000098863B6002181F311881046204700BF3A
:10423000A01C002000ED00E08C070020B805002045
:104240008C5A00002D410000600F0020915A0000A0
:104250004C050020D140000060130020A40700207E
:1042600060130020050900000B4B0C4870B50024BA
:10427000834201D3002070BD1A699D685C610021F2
:10428000A94201D11C33F3E75E691660DE685A610A
:1042900001313244F4E700BF081E0020081E002050
:1042A00030B50024C0E90232C0E905440161A342EF
:1042B00002D1C0E9000030BD45690D6001344161A3
:1042C0001144F4E738B503460C464FF02000EFF3F5
:1042D000118580F31188586950B120605A691268BD
:1042E0005A619A6901329A61002085F311880DE0C4
:1042F0001AB922606FF00B00F7E71946284600F064
:1043000067FA18B9024B9B685B69236038BD00BF30
:104310008C07002070B504460D464FF02003EFF3E4
:10432000118683F3118800F040F980B12A68426158
:10433000427B0021D206816604D1036A013301D198
:1043400000F09EF93046BDE8704000F047B92B6898
:1043500062691A602B686361A369013BA36186F3FC
:10436000118870BD70B50D462E498A68D37B013B1C
:104370000446D373C36808464BB1A26889688A4271
:1043800011D095B900F042F96FF00F000AE08A6889
:1043900092F90E2022610133E3608368A36000F08C
:1043A00035F9002070BD2269F4E791F90E1092F9F9
:1043B0000E309942A8BF194621EAE1714FF020035F
:1043C000EFF3118683F31188A06890F90E309942BB
:1043D00001DA00F00BFA2A462146304600F0F8F9DF
:1043E0000028DCD0236821699C4207D033B193F9BF
:1043F0000E309942A8BF194621EAE1714FF020031F
:10440000EFF3118583F31188A06890F90E3099427B
:1044100001D000F0EBF985F3118800F0F7F86FF0A8
:104420000A00BFE78C0700201B4B9A68D37B013B37
:1044300070B50446D373C368013BC3603BBB4FF008
:104440002003EFF3118683F311880169806890F9E6
:104450000E30994201D000F0C9F9204600F0A5F8CD
:104460000546A06088B1437BDB0604D1036A0133B3
:1044700001D100F005F986F311880023AB66E368EB
:104480000133E36095F90E30236186F31188BDE8AE
:10449000704000F0BBB800BF8C070020D0E90023BB
:1044A0001A6002685360704710B500F0DDFB0446E7
:1044B000FDF7DDFE074B084A1B6818441061621CBB
:1044C00001D0A34205DA00211846BDE81040FDF7EF
:1044D000CDBE10BD280600208C0700204FF0200321
:1044E000EFF3118083F311887047000038B5104C4A
:1044F000234653F8285F9D4200D005B9E568A368BC
:1045000078B973B15A7BD2060BD11A6A013208D13D
:10451000DA897F2A05D9074A1268934201D063627B
:1045200038BDAB4201D0FFF7BFFF6562F8E700BFBF
:104530008C070020985A000010B50146FFF7CEFF07
:104540004B7B5A0604460DD50846FFF7A7FF4B7B69
:1045500023F040034B73054B9868431A5842584167
:10456000FFF7C4FF84F3118810BD00BF8C07002043
:1045700008B50246FFF7B2FF13689A4208BF00234E
:1045800080F31188184608BD10B50146FFF7A6FF55
:1045900004460846FFF782FF4B7B23F002034B7370
:1045A00084F3118800238B6010BD10B50021FFF744
:1045B000DFFF044628B1FFF7E7FF04F1180000F021
:1045C00043FB204610BD10B50446FFF7DDFF04F1A4
:1045D0001800BDE8104000F037BB0000EFF3058382
:1045E0000D2B0BD81BB1074B5B681B0506D5064B83
:1045F0009A685B6A9A4201D0FDF7BCBE80F31188CD
:10460000704700BF00ED00E08C07002010B5FFF7F9
:1046100065FF0A4B9A68D37B01330446D3730120AC
:10462000FFF764FF84F311884FF02003EFF311804C
:1046300083F31188BDE81040FFF7D0BF8C0700203E
:104640000368984210B513D093B191F90E2093F9F5
:104650000E40944206DD5A68C1E900325A68116082
:10466000596010BD4468A34202D01B68002BEED1F4
:1046700043684B604368086019604160F1E70000DF
:1046800038B50446FFF72AFF214605460648FFF7DE
:10469000D7FF637B43F0400363730020FFF726FFDF
:1046A00085F3118838BD00BFB4070020427BD206D5
:1046B00004D1036A013301D1FFF7E2BF704738B577
:1046C00050F8103C0446A0F1180513B12846FFF736
:1046D0005BFF14F80B3C23F0040304F80B3C284662
:1046E000BDE83840FFF7E2BF70B50446FFF7F6FEBD
:1046F0000B4D06462046FFF7D1FE21462846FFF720
:104700009FFF637B55F8200C43F040036373031B4A
:1047100058425841FFF7EAFE86F3118870BD00BF8A
:10472000B4070020114B1B6810B5EBB110498B6822
:10473000DA897F2A18D80F4A93F90E4012689442FA
:1047400012DB0D4A126893420ED01A6A01320BD165
:104750000A69824206DC1846FFF7C6FFBDE8104032
:10476000FFF7A2BE121A0A6110BD00BF2806002082
:104770008C07002024060020985A000070B50446DB
:104780000D461646FFF7D8FE637B43F002036373C2
:1047900025B1A56021462846FFF752FF731C12D0B1
:1047A00009484FF4004500214FF4A022C5FB060143
:1047B0000023FBF72FFD0549421C04F11800BDE85A
:1047C000704000F07FBA70BDFFFF0400BF460000DC
:1047D00010B5054B04469868FFF7D0FF2046BDE8AA
:1047E0001040FDF7C7BD00BF8C07002038B5044658
:1047F000FFF774FE637BDB06054649B21BD1236AD3
:10480000013318D12046FFF749FE0D48A173214618
:10481000FFF716FF0120FFF769FE012385F31188DA
:1048200063B14FF02003EFF3118083F31188BDE8EB
:104830003840FFF7D3BEA1730023EFE738BD00BFB8
:10484000B4070020054B03F12802C3E90A22044AF9
:1048500000231360034A1360FFF726BE8C07002075
:10486000280600202406002038B5124C124BA268FE
:104870001B689A420FD0FFF731FE0546A068FFF78C
:104880000DFEA16804F12800FFF7DAFE0120FFF712
:104890002DFE85F31188A268636A9A4209D04FF011
:1048A0002003EFF3118083F31188BDE83840FDF752
:1048B00061BD38BD8C070020985A0000F8B5044649
:1048C00018B9FFF7D1FF2046F8BD19484FF400454D
:1048D00000214FF4A0220023C5FB0401FBF79AFC42
:1048E000451C00F089FA2C184FF02003EFF31187D4
:1048F00083F311880F4EB068FFF71EFEB0680E49B3
:104900002A46183000F0DEF93846FDF733FD00F096
:1049100073FA201A002809DD4FF47A71642200230B
:1049200080FB0101FBF7C6FC0446CCE70024CAE784
:10493000FFFF04008C070020BF46000038B5054685
:104940004FF02003EFF3118483F31188437B9A0720
:1049500002D584F3118838BD183000F075F90130A4
:10496000F7D02846FFF7A2FEEFF305830D2BF0D812
:104970001BB1044B5B681B05EBD52046BDE83840F6
:10498000FFF72CBE00ED00E0014B9868704700BFB8
:104990008C07002070B504464FF02003EFF311861A
:1049A00083F31188FFF701FE054670B1437BDB06F8
:1049B00004D1036A013301D1FFF762FE0023AB6625
:1049C0003046BDE87040FFF709BED4E902329A4292
:1049D00018BF0133A360022104F1100000F0FFFAB8
:1049E000EEE710B40A4604464FF02003EFF31180BF
:1049F00083F31188A36833B1013BA36080F311886E
:104A0000002010BC704721B980F311886FF00F00AF
:104A1000F7E7214610BCFFF7DBBE0000F8B50546FE
:104A20000F464FF02003EFF3118483F311880A48F7
:104A30004FF40046002100234FF4A022C6FB0701DB
:104A4000FBF7E8FB0549421C05F1180000F03AF9B4
:104A500084F31188F8BD00BFFFFF0400BF460000CB
:104A6000427BD20604D1036A013301D1FFF708BEAD
:104A700070470000EFF305800D2807D838B1044BCC
:104A8000586880F40060C0F3C02070470120704770
:104A900000ED00E0024B9B68187B00F001007047BE
:104AA0008C07002010B54FF02003EFF3118483F33F
:104AB0001188437B590702D484F3118810BD23F079
:104AC00004034373FFF7CCFF2046BDE81040FFF717
:104AD00085BD000030B587B004460E9D04950D9D40
:104AE00003950C9D02950B9D01950A9D0095FDF780
:104AF0000DFE044B9B6813B9236607B030BD1B6ED7
:104B0000FAE700BF8C070020036D10B5044603B11F
:104B10009847637BDA060AD1226A013207D1204620
:104B2000FFF70AFD637B43F00803637310BD9B0727
:104B300002D52046FFF728FD236A0133F2D004F1A5
:104B4000180000F081F8EDE7F0B5234F234D87B052
:104B50003E46BD4205F1300414D3214B9A68D37B05
:104B6000013BD3734FF02003EFF3118583F31188DA
:104B70001A4CB44223D385F3118807B0BDE8F04046
:104B8000FFF744BD54F8043C059354F8103C0493DB
:104B900054F8143C039354F8183C029354F81C3C0A
:104BA000019354F8203C009354E90A2354E90C0182
:104BB000FFF790FF54F8303CDD642546C9E7616A91
:104BC0004B1C03D0206819B9FFF76CFF3034D0E7D5
:104BD000FFF724FFFAE700BF081E0020D81D0020C1
:104BE0008C07002003730023C3734FF0FF3342731D
:104BF0008173036270470000034B1B680BB9FDF71C
:104C000036BB0020704700BF2C0600204FF0200369
:104C1000EFF3118083F3118870470000036840B1FF
:104C2000084A5268904204D01BB19A6881680A44CD
:104C30009A604268136003685A604FF0FF338360E4
:104C4000704700BF4C1D002010B50246FFF7DEFF85
:104C500004469068431C03D01046FFF7DFFF002096
:104C600084F3118810BD0000134B1B7870B5002B26
:104C700014BF4FF0FF326FF00042FFF7C7FF0F4B3A
:104C80001C689C4206460AD04CB1A568FFF7B4FFE9
:104C9000281A00280DDBA468FFF7AEFF221A86F35E
:104CA0001188074B1B6913B19A42A8BF1A461046D8
:104CB00070BD0022F3E700BF300600204C1D00202D
:104CC0008C07002070B5C16015460446FFF79EFFB3
:104CD0000646FFF791FF164A1368012DACBF401935
:104CE00001309342A06001D0556833B953686360C6
:104CF000536822601C6054600BE09868A168884289
:104D000010DD5A68411A9960C4E900325A6814608B
:104D10005C6086F31188FFF7A7FF0021BDE87040B3
:104D2000FDF7A4BA091A9D42A160DFD01B68DCE739
:104D30004C1D00202DE9F04B214D224E224F044600
:104D40004FF00008FFF7EEFC2C60FFF75FFF3468C0
:104D5000B44281461CD094B1A1682B68994215DCFD
:104D60005B1A2B60D7E9002312EB010B43EBE17CCC
:104D7000C4F808802046C7E900BCFFF74FFF89F35D
:104D800011883CB1E36820469847DEE7C91AA16064
:104D90000024F4E70C4EFFF739FFD6E90023296819
:104DA0002C60571843EBE178C6E9007880F311884E
:104DB000FFF75AFF2146BDE8F04BFDF757BA00BF99
:104DC0002C0600204C1D0020380600202DE9184834
:104DD000FFF71CFF0446FDF74AFA064BD3E9002310
:104DE00012EB000B43F1000C5846614684F3118826
:104DF000BDE8188838060020014B1868704700BFCE
:104E0000380600202DE91848084BD3E900234FF459
:104E10007A74A2FB04014FF0000C04FB0C11642215
:104E20000023FBF747FABDE8188800BF38060020CA
:104E3000427BD20604D1036A013301D1FFF720BCC3
:104E40007047000038B5036A002B04460BDD4FF0B5
:104E50002003EFF3118583F311881149026AFFF7EC
:104E600031FF85F31188636A01336362A3690BB173
:104E70002046984754F8105FA54210D07DB12846CF
:104E8000FFF782FB4FF02003EFF3118483F31188C7
:104E90002846FFF7CDFF84F311880023AB6638BDA9
:104EA000454E00002DE9F341184E002788464FF487
:104EB0000045044639463046C5FB020100234FF445
:104EC000A022FBF7A7F93946009030464FF4A02204
:104ED0000023C5FB0801FBF79DF901904FF020036B
:104EE000EFF3118583F311882046FFF7ADFE009B99
:104EF000236200236362019A05492046FFF7E2FE20
:104F000085F3118802B0BDE8F08100BFFFFF040007
:104F1000454E000038B504464FF02003EFF31185ED
:104F200083F31188FFF790FE85F31188013025D0B7
:104F3000E3690BB1204698474FF02003EFF311854A
:104F400083F31188002104F11000FFF711FB0446E0
:104F500020B1FFF719FB2046FFF76AFFEFF3058347
:104F60000D2B09D81BB1064B5B681B0504D52846E1
:104F7000BDE83840FFF732BB85F3118838BD00BF6C
:104F800000ED00E0836870B505460E46D3B10022FF
:104F90001C685A60637B9A0714D5236A02331BD0BE
:104FA0002046FFF710FB082E0CBF6FF00303002311
:104FB000A366637BDB0605D1236A013302D1204659
:104FC000FFF75EFBEB68C3F304321643002066F381
:104FD0001033A860EB6070BD6FF00A00FBE7036858
:104FE000984207D0D3E90002106018684260184662
:104FF000FFF7C8BF704738B54FF02003EFF31185B6
:1050000083F311880368C16098424FF00101816009
:1050100004D185F311880024204638BDD3E900026D
:105020001060186842601846FFF7ACFF0446284637
:08503000FFF7D4FAF0E7704726
:08503800ACB2FF7F0100000093
:1050400020530000790C00000000000020530000F5
:10505000891100000000000020530000E51E000040
:1050600000000000C8530000C51F00000000000041
:10507000D3530000C51F000000000000DE530000F5
:10508000A122000000000000205300006129000060
:1050900000000000EE5100005D350000000000003F
:1050A0001B510000113A0000045A00006251000038
:1050B0003D3E0000205A00002053000069420000DD
:0450C00000000000EC
:1050C400D759000003000000C35A00000300000089
:1050D400FC57000003000000675A000003000000B2
:0850E400A652000003000000C9
:1050EC006C53000040040020A0530000010000009D
:1050FC0000040A400002000000040A400203000001
:10510C00507265706172696E67204144430A0047B2
:10511C0050494F5F300050574D20736572766F20A9
:10512C00636F6E74726F6C2039306465677265657D
:10513C0020636C6F636B77697365202D3E2039306B
:10514C0064656772656520616E7469636C6F636B0F
:10515C00776973650A0050574D5F300043616E6E7E
:10516C006F742066696E64202573210A0025750A08
:10517C00000A53616D706C696E67202E2E2E200014
:10518C00426F776C20697320656D707479697368F0
:10519C0000426F776C20697320312F342066756C58
:1051AC006C69736800426F776C20697320312F3201
:1051BC002066756C6C69736800426F776C2069733C
:1051CC0020332F342066756C6C69736800426F77DE
:1051DC006C2069732066756C6C697368002564209B
:1051EC000A004144435F300043616E6E6F74206768
:1051FC00657420414443206465766963650053659A
:10520C007474696E67207570206F662074686520F1
:10521C006669727374206368616E6E656C2066617A
:10522C00696C6564207769746820636F64652025F8
:10523C00640053657474696E67207570206F662006
:10524C00746865207365636F6E64206368616E6E4D
:10525C00656C206661696C6564207769746820638D
:10526C006F6465202564004661696C656420746F09
:10527C00207265616420414443207769746820631F
:10528C006F64652025640070776D2070696E2073E3
:10529C006574206661696C730A00736F6300464C19
:1052AC004153485F30005352414D5F30005465729A
:1052BC006D696E616C00525454005345474745521A
:1052CC00006C6F6767696E670000000000000000EB
:1052DC004C5300005453000000000000000000007C
:1052EC005B2530386C755D20005B253032643A25C7
:1052FC003032643A253032642E253033642C25301C
:10530C0033645D20002573003C25733E200025731B
:10531C002E000D0A00253032782000202020007C41
:10532C00002563001B5B306D0000000000000000D6
:10533C005C5300006053000064530000685300008D
:10534C001B5B313B33316D001B5B313B33336D00E9
:10535C006572720077726E00696E66006462670037
:10536C00951D0000891D00006D1D0000B91D000079
:10537C00F004002048040020010000000A6D657351
:10538C0073616765732064726F707065643A202076
:10539C0020200D006C6F675F6261636B656E645FEC
:1053AC0072747400912000000000000000000000E6
:1053BC00DD1F0000651F000000000000636C6B5FC8
:1053CC006B333273726300636C6B5F6D3136737267
:1053DC0063007379735F636C6F636B002A2A2A2AEC
:1053EC002A20425553204641554C54202A2A2A2A19
:1053FC002A0A002020507265636973652064617409
:10540C006120627573206572726F720A00202042EF
:10541C0046415220416464726573733A203078259A
:10542C00780A002020496D70726563697365206489
:10543C0061746120627573206572726F720A00204C
:10544C0020496E737472756374696F6E2062757324
:10545C00206572726F720A005265736572766564AC
:10546C0020457863657074696F6E202800537075E1
:10547C0072696F757320696E7465727275707420C1
:10548C002849525120002A2A2A2A2A2048415244CB
:10549C00204641554C54202A2A2A2A2A0A00202028
:1054AC00427573206661756C74206F6E207665632F
:1054BC00746F72207461626C6520726561640A009D
:1054CC0020204661756C7420657363616C6174692E
:1054DC006F6E20287365652062656C6F77290A00F2
:1054EC002A2A2A2A2A204465627567206D6F6E6904
:1054FC00746F7220657863657074696F6E20286EA6
:10550C006F7420696D706C656D656E7465642920AF
:10551C002A2A2A2A2A0A002A2A2A2A2A20257320F9
:10552C00256429202A2A2A2A2A0A002A2A2A2A2AEF
:10553C00204D5055204641554C54202A2A2A2A2ABF
:10554C000A002020537461636B696E672065727268
:10555C006F720A002020556E737461636B696E67FD
:10556C00206572726F720A002020446174612041C0
:10557C0063636573732056696F6C6174696F6E0A2F
:10558C000020204D4D464152204164647265737376
:10559C003A20307825780A002020496E7374727591
:1055AC006374696F6E204163636573732056696F12
:1055BC006C6174696F6E0A002020466C6F617469AF
:1055CC006E672D706F696E74206C617A79207374BC
:1055DC0061746520707265736572766174696F6E43
:1055EC00206572726F720A002A2A2A2A2A205553C1
:1055FC00414745204641554C54202A2A2A2A2A0A3A
:10560C000020204469766973696F6E206279207A74
:10561C0065726F0A002020556E616C69676E656457
:10562C00206D656D6F7279206163636573730A0019
:10563C0020204E6F20636F70726F636573736F728F
:10564C0020696E737472756374696F6E730A0020CF
:10565C0020496C6C6567616C206C6F6164206F66AF
:10566C00204558435F52455455524E20696E746F15
:10567C002050430A002020496C6C6567616C2075D2
:10568C007365206F662074686520455053520A007C
:10569C002020417474656D707420746F206578657A
:1056AC006375746520756E646566696E65642069E2
:1056BC006E737472756374696F6E0A002A2A2A2AD3
:1056CC002A20486172647761726520657863657021
:1056DC0074696F6E202A2A2A2A2A0A002A2A2A2A60
:1056EC00204B65726E656C20416C6C6F63617469E4
:1056FC006F6E204661696C75726521202A2A2A2AF0
:10570C000A002A2A2A2A2A204B65726E656C204FC1
:10571C004F505321202A2A2A2A2A0A002A2A2A2AC6
:10572C002A204B65726E656C2050616E6963212076
:10573C002A2A2A2A2A0A002A2A2A2A20556E6B6E1D
:10574C006F776E20466174616C204572726F7220A7
:10575C00256421202A2A2A2A0A0043757272656E52
:10576C007420746872656164204944203D20257062
:10577C000A4661756C74696E6720696E7374727514
:10578C006374696F6E2061646472657373203D206D
:10579C00307825780A0049535200657373656E742E
:1057AC0069616C2074687265616400466174616C37
:1057BC00206661756C7420696E20257321205370EE
:1057CC00696E6E696E672E2E2E0A00466174616CCE
:1057DC00206661756C7420696E20746872656164F2
:1057EC00202570212041626F7274696E672E0A0049
:1057FC006D7075002D2B20233000686C4C7A006185
:10580C0064635F6E7266785F6368616E6E656C5F11
:10581C007365747570007365745F7265736F6C7506
:10582C0074696F6E007365745F6F76657273616D0A
:10583C00706C696E6700636865636B5F6275666642
:10584C0065725F73697A650073746172745F7265F7
:10585C0061640025733A2053656C6563746564203C
:10586C00414443206761696E206973206E6F742018
:10587C0076616C69640025733A2053656C656374BA
:10588C00656420414443207265666572656E63658C
:10589C00206973206E6F742076616C6964002573C7
:1058AC003A2053656C656374656420414443206100
:1058BC0063717569736974696F6E2074696D6520A5
:1058CC006973206E6F742076616C6964000000004F
:1058DC00F13300003D3800006538000025733A2094
:1058EC00496E76616C69642073656C656374696F6D
:1058FC006E206F66206368616E6E656C7300257335
:10590C003A204368616E6E656C202575206E6F744D
:10591C0020636F6E666967757265640025733A2043
:10592C00414443207265736F6C7574696F6E207699
:10593C00616C7565202564206973206E6F74207608
:10594C00616C69640025733A204F76657273616DE2
:10595C00706C696E6720697320737570706F7274E8
:10596C00656420666F722073696E676C652063686E
:10597C00616E6E656C206F6E6C790025733A204FEA
:10598C0076657273616D706C696E672076616C758B
:10599C0065202564206973206E6F742076616C69B4
:1059AC00640025733A2050726F76696465642062D6
:1059BC00756666657220697320746F6F20736D61F4
:1059CC006C6C202825752F257529006164635F6E2A
:1059DC007266785F73616164630000007D3C000057
:1059EC006D390000A9390000CD390000E53D0000FB
:1059FC00A33D00000000000000000050000000006B
:105A0C0070776D5F6E7266355F73775F70696E5F0E
:105A1C007365740000A00040000E03005D3E0000A2
:105A2C00253E000025733A204E6F206D6F72652065
:105A3C006368616E6E656C7320617661696C61621E
:105A4C006C650025733A20496E636F6D70617469E3
:105A5C00626C6520706572696F640070776D5F6E43
:105A6C007266355F73770000541D0020A81D00205E
:105A7C00B41D0020D81D0020D81D0020F5FFFFFF0D
:105A8C006D61696E0069646C650000004C05002056
:105A9C002A2A2A2A2A20426F6F74696E67205A6557
:105AAC0070687972204F5320312E31332E393920C2
:105ABC002A2A2A2A2A0A006B65726E656C0000007D
:105ACC001909000002000000AC1C002000000000BE
