:10000000100A0020B1190000051A00003D18000078
:100010003D1800003D1800003D1800003D1800008C
:100020003D1800003D1800003D180000B514000008
:100030003D1800003D180000711400003D1800003C
:100040007519000075190000751900007519000078
:100050007519000075190000751900007519000068
:100060007519000075190000751900007519000058
:100070007519000075190000751900007519000048
:100080007519000075190000751900007519000038
:100090007519000075190000751900007519000028
:1000A0007519000075190000751900007519000018
:1000B0007519000075190000751900007519000008
:1000C00075190000751900007519000075190000F8
:1000D0007519000075190000751900000000000076
:1000E000E511000000000000D11700000000000032
:1000F000D117000000000000D11700000000000030
:10010000D117000000000000D1170000000000001F
:10011000BD1D000000000000D1170000000000001D
:10012000D117000000000000D117000000000000FF
:10013000D117000000000000D117000000000000EF
:10014000D117000000000000D117000000000000DF
:10015000D117000000000000D117000000000000CF
:10016000D1170000000000000D1300000000000087
:10017000D117000000000000D117000000000000AF
:10018000D117000000000000D1170000000000009F
:10019000D117000000000000D1170000000000008F
:1001A000D117000000000000D1170000000000007F
:1001B000D117000000000000D1170000000000006F
:1001C000D117000000000000D1170000000000005F
:1001D000D117000000000000D1170000000000004F
:1001E000D117000000000000D1170000000000003F
:1001F000D117000000000000D1170000000000002F
:10020000D117000000000000D1170000000000001E
:10021000D11700007BB972B90029BEBF00204FF092
:10022000004106E008BF00281CBF6FF000414FF0FE
:10023000FF3000F0D1B9ADF1080C6DE904CE002912
:1002400009DB002B1ADB00F061F8DDF804E0DDE9E2
:10025000022304B07047404261EB4101002B1BDBDD
:1002600000F054F8DDF804E0DDE9022304B0404278
:1002700061EB4101524263EB43037047524263EB2F
:10028000430300F043F8DDF804E0DDE9022304B0A5
:10029000404261EB41017047524263EB430300F07F
:1002A00035F8DDF804E0DDE9022304B0524263EBE7
:1002B0004303704753B94AB9002908BF00281CBF3F
:1002C0004FF0FF314FF0FF3000F086B9ADF1080C70
:1002D0006DE904CE00F01AF8DDF804E0DDE9022350
:1002E00004B07047430803F05533C01A830803F085
:1002F000333300F03330184400EB101000F00F30AF
:1003000000EB002000EB0040000E70472DE9F047A5
:10031000089E04468846002B4BD18A42154667D971
:10032000B2FA82F24AB1C2F1200701FA02F320FACE
:1003300007F7954047EA030894404FEA154E230C0F
:10034000B8FBFEF71FFA85FC0EFB178843EA08434B
:1003500007FB0CF1994209D9EB1807F1FF3080F047
:100360001B81994240F21881023F2B445B1AA4B2D0
:10037000B3FBFEF00EFB103344EA034400FB0CFC1D
:10038000A44509D92C1900F1FF3380F00781A44559
:1003900040F2048102382C4440EA0740A4EB0C04EC
:1003A00000271EB1D4400023C6E900433946BDE80A
:1003B000F0878B4209D9002E00F0EB800027C6E9B8
:1003C000000138463946BDE8F087B3FA83F7002FBD
:1003D00047D18B4202D3824200F2FA80841A61EB49
:1003E000030301209846002EE0D0C6E90048DDE76F
:1003F00002B9FFDEB2FA82F2002A40F08F80491B78
:100400004FEA154E1FFA85F80127B1FBFEFC230CBD
:100410000EFB1C1143EA014308FB0CF1994207D97A
:10042000EB180CF1FF3002D2994200F2CD808446E5
:10043000591AA3B2B1FBFEF00EFB101443EA0444B8
:1004400008FB00F8A04507D92C1900F1FF3302D2B0
:10045000A04500F2B6801846A4EB080440EA0C4020
:100460009FE7C7F1200CBB4022FA0CFE4EEA030EB8
:1004700001FA07F420FA0CF521FA0CF34FEA1E48B2
:100480002543B3FBF8F92C0C08FB19331FFA8EFA3D
:1004900044EA034309FB0AF49C4202FA07F200FA19
:1004A00007F10BD91EEB030309F1FF3080F08780C1
:1004B0009C4240F28480A9F1020973441B1BADB237
:1004C000B3FBF8F008FB103345EA034400FB0AFADB
:1004D000A24508D91EEB040400F1FF336BD2A245FC
:1004E00069D90238744440EA0940A0FB0289A4EBB0
:1004F0000A044C45C2464B4654D351D0002E69D015
:10050000B1EB0A0564EB030404FA0CFCFD40FC406B
:100510004CEA0505C6E90054002747E7C2F120036D
:1005200020FA03F7954001FA02F021FA03F34FEAAB
:10053000154E3843010CB3FBFEF71FFA85F80EFB8E
:10054000173341EA034107FB08F38B4204FA02F434
:1005500007D9691807F1FF3C2FD28B422DD9023FF2
:100560002944CB1A81B2B3FBFEF00EFB103341EAF3
:10057000034100FB08F38B4207D9691800F1FF3CE7
:1005800017D28B4215D902382944C91A40EA0747C5
:100590003BE73746304609E70746E7E61846FBE6FD
:1005A0004145ABD2B8EB020A69EB0E0201381346A3
:1005B000A4E76046E9E7184695E76746D1E7814634
:1005C0007CE702382C4447E7ACF1020C2B442FE7C0
:1005D000384608E73746E9E6704700BF2DE9F74F90
:1005E00043680E4692465B686A4616210446984761
:1005F00040BBDDE900B5A6FB0B0106FB0511144A63
:100600000023FFF757FE4FF000094FF0FF388945F0
:1006100008BF8045064618D3AAFB0B010AFB05114B
:100620000B4A0023FFF746FE894508BF80450CD3DF
:10063000636832461D68162103462046A84703B06A
:10064000BDE8F08F6FF00400F9E76FF02200F6E7E5
:1006500040420F0044F6206210B511460446FFF7F1
:10066000BDFF20B10E48BDE8104000F07BBA5A2013
:1006700001F09EFF44F6585244F620612046FFF7F1
:10068000ADFF0028EED15A2001F092FF6FF0C702B3
:1006900044F620612046FFF7A1FF0028E2D110BDFB
:1006A0002C2B000010B5002244F620610446FFF711
:1006B00095FF20B10E48BDE8104000F053BAB420B9
:1006C00001F076FFC82244F620612046FFF786FF3E
:1006D0000028EFD15A2001F06BFF4FF4C87244F6A6
:1006E00020612046FFF77AFF0028E3D110BD00BF4C
:1006F0002C2B00002DE9F3472F4801F0B7FC43688D
:100700000D221C6800214FF480730646A0472A483A
:1007100001F0ACFC43680E221C6800214FF480738A
:100720000746A047254800F01DFA254801F09EFC29
:10073000044630B92249234800F014FA02B0BDE85B
:10074000F0870125DFF88490A84673680D22D3F85E
:1007500008A000216B463046D0477B680E22D3F8B4
:1007600008A0002101AB3846D047009B53B9B8F12F
:10077000010F07D1484600F0F5F944F62061204604
:10078000FFF768FF019B4BB9012D07D1484600F0E8
:10079000E9F944F620612046FFF784FF0022114664
:1007A0002046FFF71BFF18B1074800F0DBF9C5E74B
:1007B000DDE90085C9E700BFE02A0000E72A000064
:1007C000FE2A0000042B00002C2B0000152B00003B
:1007D00010B54FF02003EFF3118483F3118800F07C
:1007E00009FA084A0123C2F840354FF08042C2F8A6
:1007F0007835054B4FF0FF329A62DA6284F3118844
:10080000002010BD00E0014000ED00E008B5044606
:10081000084611461A46A04701F0FEFE01F084F892
:10082000002070470B6801330B60014B1B681847B1
:10083000701300202DE9F04F85B09B460E9CDFF829
:1008400090A0012CB8BF0124012B0CBF3023202322
:100850001546804689460194029301260A27002204
:100860000AF101040AB9AA451FD2B5FBF4F04946C2
:100870003030C04701360122013F012FB5FBF4F1B2
:100880004FF00A0304FB1155BAFBF3FAE8D14946CD
:1008900005F13000C047BBF1030F03D1019B9C1B46
:1008A000002C0FDC05B0BDE8F08F019BBB42E3DB01
:1008B000BBF1020FE0D84946029803920136C047C7
:1008C000039AD9E749462020C047013CE8E700BF2A
:1008D000FFC99A3B014B1860704700BF701300209E
:1008E0002DE9F04F89B01C464FF0000A531E064612
:1008F0000F4604934FF0FF39D046002505E06DB94F
:10090000252800F012813946B047049B13F8010FE7
:1009100004930028F3D109B0BDE8F08F642861D0BA
:1009200019D839280AD8312850D22D283CD030285F
:100930003DD0252808D13946B047DEE7582800F0D9
:100940008880632800F0EB8039462520B047049B5F
:1009500039461878F0E7702871D006D8692841D058
:100960006C283CD06828D0D0EEE7752857D017D82F
:100970007328E9D1236804F1040B1C46254615F8B9
:10098000010B002840F0C080B8F1030F40F0D68082
:10099000E41AA9EB0404002C00F3BC805C46ACE72D
:1009A000782856D07A28DEE74FF00308ADE7B9F192
:1009B000000F0EDAB8F1000F00F0BD80A0F1300991
:1009C000B8F1000F08BF4FF002089EE7B9F1000F21
:1009D000F4DB0A2303FB0909A9F13009F0E70AF166
:1009E000010A92E7BAF1010FC5BF073424F00703EB
:1009F00025681D68D4BF043403F10804002D05DA0E
:100A000039462D20B0476D4209F1FF39CDF80090ED
:100A100043462A4639463046FFF70CFF6DE7BAF1E8
:100A2000010FC5BF073424F0070322681A68CDF808
:100A30000090CCBF03F1080404344346EAE739468A
:100A40003020B04739467820B0474FF008094FF0C2
:100A50000108BAF1010FC7BF073424F00703236868
:100A60000593C2BF03F108041B6805934FF0080209
:100A70004FF00003D8BF04340393079393460BF160
:100A8000FF3B059B4FEA8B0023FA00F010F00F00AC
:100A900009D1079B13B9BBF1000F24D14FF0300CE3
:100AA00007E0069AEBE709288CBF4FF0570C4FF090
:100AB000300C394660440692B047039B07950133DA
:100AC0000393BBF1000FECD1B8F1030F7FF415AF26
:100AD000039BC3EB4905002D7FF70FAF394620205C
:100AE000B047013DF7E7531E91450693E9DBB8F1A6
:100AF000010F03D139463020B047E2E7B8F1020FC9
:100B0000DFD139462020F7E7394603932C46B0471A
:100B1000039B33E739462020B047013C3BE7206880
:100B2000251D3946B0472C46E7E6AA46A8464FF0B1
:100B3000FF390125E9E64FF00108E6E65C46054687
:100B4000E3E6000013B502AC002344F8043D02467E
:100B50000B4603482146FFF7C3FE019802B010BDC3
:100B6000250800000FB407B504A951F8040B019142
:100B7000FFF7E8FF03B05DF804EB04B0704770477F
:100B80000C4B1B78062B10D10B4B1B681A070CD192
:100B90000A4B186800F0F003302B08D000F0E0009A
:100BA000A0F140035842584170470020704701208F
:100BB000704700BFE00F00F0E40F00F0E80F00F016
:100BC000094B1B78062B0CD1084B1B681A0708D160
:100BD000074B186800F0F000A0F13003584258416C
:100BE00070470020704700BFE00F00F0E40F00F0F6
:100BF000E80F00F008B5FFF7C3FF28B1784B794A3A
:100C00001B68C3F304231360FFF7DAFF10B1764BC0
:100C1000764A1A60FFF7B4FF28B1754B754A1B6816
:100C2000C3F342331360FFF7CBFF20B1724AD3689E
:100C300023F08073D360FFF7A3FF40B14FF08043F0
:100C40000022C3F80C21C3F81021C3F83825FFF7A0
:100C5000B7FF10B1694B03221A60FFF7B1FF40B133
:100C6000674B05221A6001229A6700229A603F2290
:100C70005A60644B1B78062B50D1634B1B681907D5
:100C80004CD1624B1B6803F0F003502B46D14FF060
:100C900080525F4BD2F80414C3F82015D2F8081420
:100CA000C3F82415D2F80C14C3F82815D2F8101480
:100CB000C3F82C15D2F81414C3F83015D2F8181450
:100CC000C3F83415D2F81C14C3F84015D2F8201418
:100CD000C3F84415D2F82414C3F84815D2F82814E0
:100CE000C3F84C15D2F82C14C3F85015D2F83014B0
:100CF000C3F85415D2F83414C3F86015D2F8381478
:100D0000C3F86415D2F83C14C3F86815D2F840143F
:100D1000C3F86C15D2F84424C3F87025FFF730FFF0
:100D200028B13C4B3C4A1B6803F04F031360FFF7AC
:100D300027FF48B14FF08043D3F80024D20744BFC7
:100D40006FF00102C3F80024344B1B68062B08D156
:100D5000334B1B68062B01BF324A136843F4806390
:100D600013604FF01023D3F80022002A03DBD3F8DE
:100D70000432002B2FDA2C4B0122C3F80425D3F8C0
:100D80000024002AFBD04FF010221521C2F80012D7
:100D9000D3F80024002AFBD04FF010231522C3F80B
:100DA0000422214B1A46D3F800140029FBD000215D
:100DB000C3F80415D2F80034002BFBD0BFF34F8FDB
:100DC0001A491B4BCA6802F4E0621343CB60BFF3BD
:100DD0004F8F00BFFDE7174B174A1A6008BD00BFD1
:100DE000240300104035014074C007400DF0ADBA37
:100DF000440200103C050040F0ED00E0A00500407A
:100E000010560040E00F00F0E40F00F0E80F00F093
:100E100000C0004058020010E40E004030010010F5
:100E2000340100103C17004000E0014000ED00E0FC
:100E30000400FA05741300200090D0030369C16810
:100E40008B429DBF8268D21802F1FF3203F1FF335B
:100E500094BF501A581A70472DE9F041D0E9026743
:100E60000446F61B4068964288461546384405D924
:100E700000F019FE3D44E560BDE8F0813246AD1B4F
:100E800000F011FE2A4608EB0601606800F00BFE38
:100E9000F1E72DE9F843C5680646894617464FF045
:100EA00000083469B3687068A54228BFE418013CA3
:100EB000621B5C1BBC4228BF3C46944228BF1446C0
:100EC00049462844224600F0EEFDB3682544AB4273
:100ED00008BF00253F1BA044A144F560E1D1404676
:100EE000BDE8F88310B5114C114AA2610323C4E98F
:100EF0000433104BE36122664FF480630E4A236291
:100F00006266002310220D49A362E01D6362E36262
:100F10002367E3666367A26600F0AEFD08492046DA
:100F200000F0AAFD2023A37110BD00BF2C050020F6
:100F30004E2B00001000002000000020572B000066
:100F40005B2B0000F8B5184C182300FB033503FB9E
:100F500000402544C46A012C0F46164611D003D325
:100F6000022C1BD000240AE02846FFF767FF8642C8
:100F700005D8324639462846FFF76EFF34462046EC
:100F8000F8BD2846FFF75AFF8642344628BF04467C
:100F9000224639462846FFF75FFFF0E72846BDE8BE
:100FA000F840FFF776BF00BF2C050020FFF79ABF7F
:100FB00010B5054CFFF7FAFF2046FFF78BFC2046E3
:100FC00000F0C2FD002010BDCD0F00002DE9F3415F
:100FD00002AE144D06F8010D074603244FF020031E
:100FE000EFF3118883F31188012231460020FFF7C7
:100FF000A9FF88F3118828B101232B70384602B06D
:10100000BDE8F0812B78002BF8D0013C07D001F02F
:1010100071FC0028E2D1022001F0CAFADEE72C7050
:10102000ECE700BF1004002010B54FF02003EFF3F1
:10103000118283F31188114C237823B982F311882C
:101040006FF0440010BD013BDBB2237023B182F38B
:1010500011886FF00F00F5E7094B1878012128B1CE
:10106000217082F311886FF00A00EBE7197082F3A8
:101070001188044A11601870E4E700BF13040020CF
:10108000120400200400004008B50022104601218F
:1010900000F086FB002000F05FFB002008BD000090
:1010A000F8B54FF02002EFF3118382F31188264A3E
:1010B0001078441C147070B183F311884FF0804392
:1010C000D3F80C3403F00113B3F1011F0CBF00205F
:1010D0006FF0430007E01D4D2F782FB1107083F3A0
:1010E00011886FF00A00F8BD01262E7083F3118875
:1010F0004FF0804419B3384600F03EFBC4F800714D
:10110000D4F80433C4F804632660D4F8002192B103
:101110000022C4F800210E4A13F0010F4FF0010322
:1011200008BFC4F808330020C2F8803100F014FB77
:1011300000232B70C2E720BF40BF20BFE5E7C4F803
:1011400000112660F4E700BF130400201204002001
:1011500000E100E038B54FF02002EFF3118382F395
:1011600011881D4D2A788AB183F311884FF080428F
:10117000D2F81C34D2F8182403F0030343F480336C
:10118000934314BF6FF04300002038BD01242C703E
:1011900083F311884FF08043104DC3F80421C3F846
:1011A00018152C6011F003014FF01805C3F808530F
:1011B000C3F80C21C3F81021D8D11022C3F8382568
:1011C000C3F80453C3F80443FFF76AFF0028CDD1E6
:1011D000034BC3F80041C9E7110400200800004098
:1011E00000E100E0F8B54FF080430546D3F808C1B0
:1011F000D3F80423D3F80C44D3F80071D3F80401D6
:10120000D3F80C11D3F8106102F00102BCF1000F09
:1012100003D04FF0000CC3F808C127B14FF0804352
:101220000027C3F800713AB1E30341BF4FF0804398
:101230000122C3F808231A6120B14FF08043002235
:10124000C3F8042149B14FF080440021C4F80C11C7
:101250002846FFF7E9FE0123636176B14FF0804332
:1012600000210124C3F810112846C3F80443FFF7F6
:1012700017FF10B9014BC3F80041F8BD00E100E0D1
:10128000084BC3F84005D3F80435C01A20F07F405E
:10129000054B0238984282BF044B4FF40032C3F82A
:1012A0000021704700100140FDFF7F0000E100E0D9
:1012B00038B5114B114CD3F804052268104D801A33
:1012C0002B6820F07F4083420FD8B0FBF3F00D492C
:1012D0000968884228BF084600FB032323F07F43A8
:1012E0002360094B186001F09DF920682B681844B1
:1012F000BDE83840FFF7C4BF0010014018040020CB
:10130000881300201404002084130020024B0022C4
:10131000C3F84021FFF7CCBF00100140084B002864
:101320001A68084B93FBF2F302DB8342A8BF034623
:1013300005490B600549086802FB0300FFF7A0BFE1
:1013400088130020FFFF7F001404002018040020F1
:1013500008B5074B0022C3F84021064B4FF400327A
:10136000C3F88021FFF7A4FF034B01221A6008BDD8
:101370000010014000E100E01404002070B519489D
:1013800000F074FE50B34368174D1B680121984765
:10139000164B00241C60164B01261E60154BC5F829
:1013A00008451B68C5F840354FF48033C5F8443311
:1013B000C5F80433104BC5F840414FF40032C3F870
:1013C000802131462246112000F0EAF9112000F078
:1013D000C3F90A4B20461E602E6070BD4FF0FF30EF
:1013E000FBE700BF7C2B0000001001401804002028
:1013F000140400208813002000E100E008100140E0
:1014000007488168006A884208D000B501F092F868
:101410005DF804EB03494FF080520A60704700000A
:10142000D405002004ED00E0044800232021C21868
:101430000133272B82F80013F9D1704700E100E057
:10144000084A094993680968D966084998664B684B
:1014500043F080534B60002383F311889368D86E68
:10146000704700BFD4050020E430000000ED00E02C
:10147000202080F311880D498A684FF02C00104419
:10148000EFF3098C80E8F01F094F4FF000660A6AFD
:101490008A603E60906E0023936680F3118802F1AB
:1014A0002C0090E8F01F8CF309887047D4050020C9
:1014B00004ED00E01EF0040F0CBFEFF30880EFF323
:1014C0000980816931F8021C11F0FF010229FFD067
:1014D00000B500F0F9F900BD38B5194C05461948BA
:1014E000FFF740FBA36AD90602D51748FFF73AFB7E
:1014F000A36A1A0702D51548FFF734FBA36A9B07B6
:101500000ED51348FFF72EFB616BA36A180607D5AB
:101510001048FFF727FB1DB1A36A23F08003A362E5
:10152000074CA26AD20702D50B48FFF71BFBA36A40
:101530009B0602D50948FFF715FB002038BD00BF08
:1015400000ED00E0EB2C0000022D0000142D000047
:10155000282D0000412D0000582D0000782D00009E
:1015600038B51B4C05461B48FFF7FCFAA36AD804A4
:1015700004D51948FFF7F6FA002038BDA36A19050B
:1015800001D51648F6E7A36A9A0514D51448FFF763
:10159000E9FAA16BA36A1B0407D51248FFF7E2FA28
:1015A0001DB1A36A23F40043A362094B9B6A58054B
:1015B000E2D50D48DEE7A36A5905FAD4A36ADA0535
:1015C00001D50A48D6E7A36A9B04D5D50848D1E7D8
:1015D00000ED00E09C2B0000022D0000142D000007
:1015E000B32B0000CD2B0000E32B0000FF2B0000ED
:1015F000782D000010B5194C1948FFF7B3FAA36A0B
:101600009A0102D51748FFF7ADFAA36ADB0102D5AC
:101610001548FFF7A7FAA36A180302D51348FFF786
:10162000A1FA0E4CA36A590302D51148FFF79AFAA2
:10163000A36A9A0302D50F48FFF794FAA36ADB0363
:1016400002D50D48FFF78EFA044A936A6FEA034306
:101650006FEA13439362002010BD00BF00ED00E06D
:10166000A82D0000C12D0000D52D0000F02D000098
:101670000F2E0000352E0000502E000038B5274CEC
:101680006368C3F30803DA1E0546092A3AD8DFE87F
:1016900002F0053335303939393939372048FFF709
:1016A00061FAE36A9A0703D51E48FFF75BFA02E086
:1016B000E36A5B0005D400202946BDE8384000F00D
:1016C000D1B81948FFF74EFA184B1B782BB10120FF
:1016D000FFF702FF0628EFD138BD154B1B781BB171
:1016E0000120FFF73DFFF5E7124B1B889BB2002B53
:1016F000E1D0FFF77FFFEDE70020E9E70020F0E70A
:101700000D48D2E70D480E49A3F110020F2BD8BFA8
:1017100001460C48FFF726FACDE700BF00ED00E0D8
:10172000462C00005E2C0000802C000028ED00E01C
:1017300029ED00E02AED00E0A02C0000182C0000AC
:101740002D2C0000D72C0000024A536943F01003EF
:101750005361704700ED00E043B2002B08DB01222B
:1017600000F01F0002FA00F05B09024A42F8230071
:10177000704700BF00E100E043B2002B0DDB012207
:101780005B0900F01F0002FA00F02033034A42F820
:101790002300BFF34F8FBFF36F8F704700E100E06E
:1017A00043B2002BA8BF03F1604301F101014FEAEE
:1017B0004111AEBF03F5614300F00F00034BC9B206
:1017C000ACBF83F800131954704700BF14ED00E05C
:1017D00000F034B8F8B50C4616461F4604220A9BA2
:1017E0000999054601F03AF9A6F1200121440C4A75
:1017F00021F00701002322F00102C5E91433C5E9F5
:1018000017468A61069A4A60079A8A60089ACA60EF
:101810004FF080720F60CA61E964AB66F8BD00BF2B
:101820000D080000014910220A60704710ED00E029
:10183000404080F3118830BF704700BF404080F3C4
:101840001188DFF81CC0DCF800C01CF4006C0CBF71
:10185000EFF30880EFF3098000B5FFF70FFF00BD3D
:1018600004ED00E038B504460D4605281AD8DFE837
:1018700000F00319191315170D48FFF773F900F05D
:10188000CBFEAA6901460B48FFF76CF929462046B2
:10189000BDE8384000F01CB80748EEE70748ECE721
:1018A0000748EAE701460748FFF75CF9E7E700BFAA
:1018B0007C2E00001A2F00009C2E0000C22E00007B
:1018C000DC2E0000F72E000001460068FFF7CABFBB
:1018D000052810B50CD001F00DF860B101F00AF840
:1018E0000C490D4B002808BF19460C48FFF73AF980
:1018F000FFF79EFFFCE701F00DF80028EED1084C41
:101900000848A168FFF72EF9A068BDE8104000F074
:101910000BB800BF562F00005A2F00006B2F00009D
:10192000D40500208B2F000038B505464FF020036A
:10193000EFF3118483F3118801F026F80B4B9B68B9
:10194000AB420DD10A4B5A68C2F3080222B900F02B
:10195000F1FD2046FFF774FD5A6842F080525A604C
:101960002046BDE8384000F0D9BC00BFD4050020B7
:1019700000ED00E000B572B60B4AD06900281EBF2A
:101980000021D16100F098FB62B6EFF30580A0F171
:1019900010004FEAC0000549014409C998475DF8A5
:1019A00004EBFFF72DBD0000D4050020DC00000093
:1019B000202080F3118806484FF40061401880F31E
:1019C0000988022080F31488BFF36F8F00F006B8F7
:1019D000500B002030BFFFF7FDBF00BF08B5074B1D
:1019E000074A23F07F039360BFF34F8FBFF36F8FDE
:1019F00000F092FB00F09AFB00F0BCFB000000003E
:101A000000ED00E008B5FFF7E5FFBDE80840FFF78F
:101A1000F7BC0000034B05225A60BFF34F8FBFF3A2
:101A20006F8F704790ED00E0114A10B51468082CD4
:101A30001BD81049506800234B609C4200F10C00F9
:101A400003D1FFF7E7FF002010BD8B6050F80C2C8E
:101A500022F01F0242F010021A43CA6050F8042C10
:101A600042F001020A610133E7E74FF0FF30EBE794
:101A70005013002090ED00E00139034611F8012FCA
:101A80000AB91A70704703F8012BF7E701380139DA
:101A900010F8013F11F8012F934202D1002BF7D12A
:101AA0001A46981A7047F0B581EA0004A507034664
:101AB0000BD0013B0A4491421DD1F0BD002AFCD05D
:101AC00011F8014B03F8014B013A9C07F6D11D1F99
:101AD0000C468F183E1B032E08D894086FF00305A0
:101AE00005FB0422A40023442144E2E754F8046BDC
:101AF00045F8046FEEE711F8014B03F8014FDAE700
:101B0000F0B5C9B203469C070FD141EA012444EA6B
:101B100004441D469F187E1B032E0CD8940803EB2B
:101B2000840413449C4209D1F0BD002AFCD003F880
:101B3000011B013AE7E745F8044BECE704F8011B09
:101B4000F0E74FF0FF307047014B1860704700BF5F
:101B50007813002000688068006841B9D0F810153B
:101B600021FA02F202F001021A6000207047D0F858
:101B70001025F9E700688068006851B9012101FA71
:101B800002F21BB1C0F8082500207047C0F80C25F0
:101B9000FAE7C0F80435F7E78368186872B108609F
:101BA0005A68196002B9596000207047106058687F
:101BB000814208BF5A600DE0024600680028F3D059
:101BC0008842F9D10868002AF0D15A681860914219
:101BD00000D1586000230B60E6E700000C4B30B5E5
:101BE0000C4D1C68032324FA03F2D20708D503F531
:101BF000A27255F82220C2F30422824200D121B100
:101C00000133082BEFD16FF01203184630BD00BF2F
:101C10007C1300200060004070B514460D46C9B921
:101C2000036886689B6810461979FFF7D7FF00287C
:101C30000FDBB268012303FA04F4144300F14001FE
:101C4000064AB46003FA00F042F82150C2F80403D7
:101C5000284670BD6FF02200FBE700BF0060004027
:101C600070B514460D46B1B9036886689B68104686
:101C70001979FFF7B3FF00280CDB0123B26803FAE0
:101C800000F003FA04F4054B22EA0404B460C3F83C
:101C90000803284670BD6FF02200FBE7006000409B
:101CA000F8B506681D46B3681446186811B16FF0A0
:101CB0002200F8BD05F44072B2F5807FC5F301370C
:101CC000C5F3813305F4403154D0B2F5007F0CBF29
:101CD00004220022B1F5803F03EB87032E4F08BF9B
:101CE000002115F0010F57F8233004F5E0774AD0B2
:101CF0000C2A41D10121A140C0F8081543F003038B
:101D0000134340F8273015F00200D2D0B3682046C4
:101D10001979FFF763FF002814DA204F3E68304638
:101D2000FEF7E0FA082834D0F34393FAA3F0002B2F
:101D3000B0FA80F04FF0010308BF4FF0FF3083404E
:101D400033433B60A906B2D56A061FD415F0040FD1
:101D50000CBF4FF400334FF48033240204F4F854E2
:101D600044F001041C4300F5A2700D4B43F82040E1
:101D700000209EE70C22ADE7042A02BF0121A1400A
:101D8000C0F80C15BAE713430B43BAE74FF44033DE
:101D9000E3E76FF004008CE7B02F00007C13002015
:101DA0000060004008B5002205210620FFF7F8FC7E
:101DB0000620FFF7D1FC002008BD0000002370B50D
:101DC00003201C460125820002F1804202F5C04238
:101DD000D2F8001141B1D2F81015C2F80041C1F398
:101DE000042205FA02F2134301300828EBD1094E10
:101DF000B268146864B195681D40A3681D4204D0A0
:101E000063682A462146304698472468002CF4D15E
:101E100070BD00BFD413002003689B68D979034BC1
:101E20000020CB40C2E90030704700BF0024F4001E
:101E3000002070472DE9F04F914602688568D2F87E
:101E400008808BB08A4698F806201F4633B1994522
:101E500004D02B4605EBC201994215D10023DCB218
:101E6000A2421CD8541EE4B2FF2C63D16B4B6C4AC7
:101E70006C496D48CDE900336C4BFEF773FE6FF093
:101E80000B000BB0BDE8F08F5868824505D098680C
:101E900018B12868814540F0B4800833DCE701338D
:101EA00005EBC30151F8041C8A45D8D15B4BD8F827
:101EB00000605F4A0093CDE903735A495B4B5D486C
:101EC000CDE901A9FEF74EFE98F8043023449B00AB
:101ED00003F1804303F5C0430020C3F8100598F8D0
:101EE0000520079302EB44025FFA82FB01210BF10C
:101EF000010201FA02F201FA0BFC42EA0C0208921A
:101F00004D4A089BC2F808354FF0A04201FA0AFE7C
:101F1000C2F818E5CFB9C2F80CE505EBC4040023FC
:101F2000A36098F8063005EBC3039D4263D10123FB
:101F3000736064E005EBC401631E8968DBB209B11C
:101F40001C4691E7A242B1D890E7B94502D1C2F848
:101F500008E5E2E798F806C0C2F80CE5C6F8040503
:101F600098F80720C6F8102523B29A0006EB02085D
:101F700006EB8C0C4FF0080EC6F80805C8F84001B7
:101F8000CCF84001C6F800E24FEA194E099327FA4F
:101F90000EF329FA0EFEC8F84035CCF840E5DFF81C
:101FA000A0C0079BF1604CEA0A2CC3F810C54FEAA9
:101FB000CB0303F1804303F5F833503406EB84047C
:101FC00002F18042C3F8104502F5C04206F5A6743E
:101FD000C3F81425C3F81845C3F81C25164B089AF6
:101FE000C3F80425099B3160C5F8009005EBC305D3
:101FF000C5E901A745E755F8082F002A95D000202C
:102000003FE7064B064A07490C48CDE90033074B2A
:10201000FEF7A8FD6FF0150033E700BF142B00009A
:10202000383000003F3000004B300000143000001A
:10203000763000007D30000000F00140A930000043
:102040000300130038B5084B53F82040013053F813
:1020500020502046854204F10C0400D838BD54F8C5
:102060000C3C5B689847F4E7D0300000104B70B52B
:10207000104C05461E469C4204D10E4CB44209D178
:10208000002412E062681AB122681268AA420CD0D9
:102090000C34F0E763680BB90C34EFE7236828468B
:1020A0001968FFF7F3FC0028F6D1204670BD00BF89
:1020B000EC1300208C130020431C03D0034B1B683F
:1020C000834201DCFFF744B9704700BF8013002052
:1020D0000F4D80B50F4F05F114064FF02002EFF3BE
:1020E000118382F311886B69B3420AD04BB11C692A
:1020F000631C08D03B68A34205DDEC61FFF798FB49
:10210000EBE74FF0FF342046FFF708F9F5E700BF93
:10211000D4050020801300200248034A0021121A2F
:10212000FFF7EEBC00000020100600200248034A22
:102130000349121AFFF7B7BC50130020EC1300201C
:102140001431000008B50220FFF77CFF0748FEF7B6
:1021500009FD0320FFF776FF00F036FCFEF7CAFA10
:10216000034A137A23F00103137208BDEC30000018
:10217000B404002080B586B006AFFFF755F92E4BAA
:1021800083F308882D4B2E4D2E4E0024E02283F839
:102190002220DC771C765C769C765A6A42F4E02238
:1021A0005A62FFF7D1FAFFF73DFB2046FFF74AFFDF
:1021B0000120FFF747FF00F0C3F9012335624FF418
:1021C0008062CDE90343CDE9014400941E4B1F49D1
:1021D000284600F0BFFB6B7A23F0040213F01B0FBC
:1021E0006A72344605D16B6A013302D1284600F089
:1021F000EDF8174E17490F230122CDE903320023D2
:10220000CDE9013300934FF4A072134B304600F038
:10221000A1FB737AE66023F0040373720F4BA56091
:10222000C4E90533084A0E4B0E4C83F3098800219C
:1022300081F31188104620475013002000ED00E084
:10224000B4040020D4050020452100001006002021
:1022500044040020100A0020D1200000E8050020DE
:10226000100A00200D080000D0E900231A6002685F
:10227000536070474FF02003EFF3118083F3118810
:10228000704700000D4B1A4652F8241F914200D0AF
:1022900001B9D96870B99A6862B1507AC00609D19B
:1022A000506A013006D150897F2803D9044800685C
:1022B000824201D1196270471A627047D40500202A
:1022C000E830000010B50146FFF7D4FF4B7A5A06FC
:1022D00004460DD50846FFF7C7FF4B7A23F04003AD
:1022E0004B72054B9868431A58425841FFF7CAFF92
:1022F00084F3118810BD00BFD405002010B501463D
:10230000FFF7B8FF04460846FFF7AEFF4B7A23F00D
:1023100002034B7284F3118810BD0000EFF30583B4
:102320000D2B0ED81BB1094B5B681B0509D5084B5B
:102330009A681B6A9A4204D0064B00221A60FFF783
:102340007FB880F311880020704700BF00ED00E0E7
:10235000D40500200406002010B5FFF78BFF0A4BC0
:102360009A68D37A01330446D3720120FFF78AFFBB
:1023700084F311884FF02003EFF3118083F3118869
:10238000BDE81040FFF7CABFD4050020036898429B
:1023900010B513D093B191F90A2093F90A409442F1
:1023A00006DD5A68C1E900325A681160596010BDF3
:1023B0004468A34202D01B68002BEED143684B60F7
:1023C0004368086019604160F1E7000038B50446D1
:1023D000FFF750FF214605460648FFF7D7FF637A0F
:1023E00043F0400363720020FFF74CFF85F3118830
:1023F00038BD00BFF8050020427AD20604D1436AF6
:10240000013301D1FFF7E2BF7047000070B50B61E7
:1024100004461D46C1E902020BBB4FF02003EFF357
:10242000118683F311884FF0FF330B6170B1CB68D5
:1024300013B1FFF763FF2562637A23F0040363722D
:102440002046FFF7D9FF86F3118870BD86F3118807
:102450004B69002BF9D00846BDE870401847114A77
:10246000D2E9053602F114008342054613D093B138
:1024700008691C69A04208DC5A68201A1861C1E981
:1024800000325A6811605960DFE7001BB3420861EF
:1024900001D01B68EBE7C1E90056936919609161AF
:1024A000D3E700BFD405002038B50446FFF7E2FEAD
:1024B00005462046FFF7D8FE21460648FFF766FF8F
:1024C000637A43F0400363720020FFF7DBFE85F37D
:1024D000118838BDF8050020134B1B68002B10B580
:1024E00002461FDD43897F2B1CD8104B90F90A1040
:1024F0001B68994216DBFFF7BDFE0D4951F8243FDA
:102500008B4204460AD05BB192F90A0093F90A3073
:10251000C31A5842584184F3118810BD0020FAE7CD
:102520001846F8E70020F8E72405002028050020D9
:10253000D4050020014B00221A60704704060020D9
:10254000024B03F12402C3E909227047D40500209D
:1025500038B5144C144BA2681B689A420FD0FFF791
:1025600089FE0546A068FFF77FFEA16804F12400FC
:10257000FFF70CFF0120FFF785FE85F31188A268A5
:10258000236A9A420CD04FF02003EFF3118083F3BB
:102590001188064B00221A60BDE83840FEF750BF94
:1025A00038BD00BFD4050020E8300000040600203C
:1025B00037B520B903B0BDE83040FFF7C9BF64218B
:1025C00040F2E7340025C1FB00454FF47A72002346
:1025D00020462946FDF71EFE013001904FF02003F2
:1025E000EFF3118583F31188094CA068FFF76AFEA9
:1025F000A068019B00F114010022FFF707FF054BC3
:10260000002228461A6003B0BDE83040FEF718BF2C
:10261000D405002004060020014B9868704700BFD5
:10262000D40500202DE9F04F85B04FF02003EFF3E3
:10263000118483F311886A49D1E90089C71718EB1F
:10264000000249EB07030646C1E9002384F3118821
:102650000DF1080CCDE902CC4FF02003EFF311850A
:1026600083F311885F4C21462A4651F8143F8B4270
:1026700000D06BBB85F31188A068FFF72DFF20B356
:10268000594B1A684FF47A7382FB038908FB07F1F0
:10269000564A06FB0913A8FB06671F44F10B136893
:1026A00041EA47410B445249136009688B420CDBF5
:1026B000002313604FF02003EFF3118583F311889B
:1026C000A068FFF7F1FE85F3118805B0BDE8F08F33
:1026D000484D0095012129604FF0000E6FF0010870
:1026E00019698142AABFA1EB0009C3F810E0C3F841
:1026F0001090401AA1691D69994214BF1968002100
:10270000D5B9D3E9005ACAF800501D68C5F804A02D
:10271000029DC3E9005C029D02936B60C3F81080C8
:1027200082F311884FF02003EFF3118283F31188B5
:102730000B460029D4D101E00028F1DC82F3118896
:102740000298604503D1009A0023136094E70028A3
:10275000F9D0D0F800B0039B4FF0FF39984208BF82
:102760004FF0000B4FF0000AD0E900231A60026816
:10277000536083684FF02002EFF3118882F31188D1
:10278000C0F81090FBB1C26832B118460193FFF750
:10279000B5FD019BC3F820A05A7A22F0040112F083
:1027A0001B0F597205D15A6A013202D11846FFF740
:1027B0000DFE88F31188BBF1000FC4D0039B5B456D
:1027C00008D1002308E088F311884369002BF2D078
:1027D0009847F0E7DBF8003058469B46C4E700BF57
:1027E00008060020D40500208813002004060020DD
:1027F000240500200006002003695A1C10D0094956
:102800000268896988421EBF11695B1813614368B9
:102810001A60026853604FF0FF3303610020704775
:1028200018467047D4050020427AD20604D1436A84
:10283000013301D1FFF7CABD70470000F8B5044667
:1028400040F2E73664200027C0FB01674FF47A723C
:10285000002330463946FDF7DDFC461C4FF02003CF
:10286000EFF3118583F3118800236662E46123622C
:10287000D6B94FF02003EFF3118783F311884FF09F
:10288000FF336362236A1BB12046FFF737FD2662E0
:10289000637A23F0040363722046FFF7C5FF87F3D2
:1028A000118885F31188F8BD114AD2E9053C02F17F
:1028B00014018B4204F114060F4613D093B1616AE0
:1028C0001869814208DC5A68411A1961C4E9053265
:1028D0005A6816605E60E4E7091A9C45616201D09F
:1028E0001B68EBE7C4E9057C93691E609661D8E735
:1028F000D4050020EFF305800D2807D838B1044B2C
:10290000586880F40060C0F3C02070470120704711
:1029100000ED00E0024B9B68187A00F00100704760
:10292000D405002010B54FF02003EFF3118483F39A
:102930001188437A590702D484F3118810BD23F01B
:1029400004034372FFF770FF2046BDE81040FFF715
:10295000E5BC000030B587B004460E9D04950D9D82
:1029600003950C9D02950B9D01950A9D0095FEF720
:1029700031FF044B9B6813B9636607B030BD5B6ED3
:10298000FAE700BFD4050020436D10B5044603B13B
:102990009847637ADA060AD1626A013207D1204683
:1029A000FFF790FC637A43F00803637210BD9B0746
:1029B00002D52046FFF7A2FC636A0133F2D004F18E
:1029C0001400FFF719FFEDE7F0B5214F214D87B057
:1029D0003E46BD4205F12C0414D31F4B9A68D37AAE
:1029E000013BD3724FF02003EFF3118583F311887D
:1029F000184CB44220D385F3118807B0BDE8F040ED
:102A0000FFF7AABC54F80C3C049354F8103C039311
:102A100054F8143C029354F8183C019354F81C3CAD
:102A2000009354E9092354E90B01FFF793FF54F88D
:102A30002C3C1D652546CCE7616A4B1C03D0206801
:102A400019B9FFF76FFF2C34D3E7FFF7F7FEFAE76A
:102A5000EC130020EC130020D40500200372427216
:102A600000234FF0FF328172C372C0E90832C361A4
:062A70008362704770470D
:022A7600FFFF60
:082A780094D8FF7F010000006B
:102A8000142B0000D107000000000000142B0000F0
:102A9000B10F0000000000007C2B00008910000036
:102AA00000000000872B00008910000000000000DB
:102AB000922B00007D13000000000000142B00008A
:102AC000291A000000000000E02A0000A51D0000F7
:102AD000F02F0000FE2A0000311E00002830000008
:102AE0004750494F5F300050574D2064656D6F204F
:102AF0006170702D66616465204C45440A00505732
:102B00004D5F300043616E6E6F742066696E6420A5
:102B10002573210A00427574746F6E20707265739C
:102B200073206465746563746564200070776D203C
:102B300070696E20736574206661696C730A004663
:102B40004C4153485F30005352414D5F3000546553
:102B5000726D696E616C005254540053454747458D
:102B600052000000551100000000000000000000AD
:102B7000A11000002910000000000000636C6B5FD2
:102B80006B333273726300636C6B5F6D31367372DB
:102B900063007379735F636C6F636B002A2A2A2A60
:102BA0002A20425553204641554C54202A2A2A2A8D
:102BB0002A0A00202050726563697365206461747D
:102BC0006120627573206572726F720A0020204264
:102BD00046415220416464726573733A203078250F
:102BE000780A002020496D707265636973652064FE
:102BF00061746120627573206572726F720A0020C1
:102C000020496E737472756374696F6E2062757398
:102C1000206572726F720A00526573657276656420
:102C200020457863657074696F6E20280053707555
:102C300072696F757320696E746572727570742035
:102C40002849525120002A2A2A2A2A20484152443F
:102C5000204641554C54202A2A2A2A2A0A0020209C
:102C6000427573206661756C74206F6E20766563A3
:102C7000746F72207461626C6520726561640A0011
:102C800020204661756C7420657363616C617469A2
:102C90006F6E20287365652062656C6F77290A0066
:102CA0002A2A2A2A2A204465627567206D6F6E6978
:102CB000746F7220657863657074696F6E20286E1A
:102CC0006F7420696D706C656D656E746564292024
:102CD0002A2A2A2A2A0A002A2A2A2A2A202573206E
:102CE000256429202A2A2A2A2A0A002A2A2A2A2A64
:102CF000204D5055204641554C54202A2A2A2A2A34
:102D00000A002020537461636B696E6720657272DC
:102D10006F720A002020556E737461636B696E6771
:102D2000206572726F720A00202044617461204134
:102D300063636573732056696F6C6174696F6E0AA3
:102D40000020204D4D4641522041646472657373EA
:102D50003A20307825780A002020496E7374727505
:102D60006374696F6E204163636573732056696F86
:102D70006C6174696F6E0A002020466C6F61746923
:102D80006E672D706F696E74206C617A7920737430
:102D900061746520707265736572766174696F6EB7
:102DA000206572726F720A002A2A2A2A2A20555335
:102DB000414745204641554C54202A2A2A2A2A0AAE
:102DC0000020204469766973696F6E206279207AE9
:102DD00065726F0A002020556E616C69676E6564CC
:102DE000206D656D6F7279206163636573730A008E
:102DF00020204E6F20636F70726F636573736F7204
:102E000020696E737472756374696F6E730A002043
:102E100020496C6C6567616C206C6F6164206F6623
:102E2000204558435F52455455524E20696E746F89
:102E30002050430A002020496C6C6567616C207546
:102E40007365206F662074686520455053520A00F0
:102E50002020417474656D707420746F20657865EE
:102E60006375746520756E646566696E6564206956
:102E70006E737472756374696F6E0A002A2A2A2A47
:102E80002A20486172647761726520657863657095
:102E900074696F6E202A2A2A2A2A0A002A2A2A2AD4
:102EA000204B65726E656C20416C6C6F6361746958
:102EB0006F6E204661696C75726521202A2A2A2A64
:102EC0000A002A2A2A2A2A204B65726E656C204F36
:102ED0004F505321202A2A2A2A2A0A002A2A2A2A3B
:102EE0002A204B65726E656C2050616E69632120EB
:102EF0002A2A2A2A2A0A002A2A2A2A20556E6B6E92
:102F00006F776E20466174616C204572726F72201B
:102F1000256421202A2A2A2A0A0043757272656EC6
:102F20007420746872656164204944203D202570D6
:102F30000A4661756C74696E6720696E7374727588
:102F40006374696F6E2061646472657373203D20E1
:102F5000307825780A0049535200657373656E74A2
:102F600069616C2074687265616400466174616CAB
:102F7000206661756C7420696E2025732120537062
:102F8000696E6E696E672E2E2E0A00466174616C42
:102F9000206661756C7420696E2074687265616466
:102FA000202570212041626F7274696E672E0A00BD
:102FB0000000000000020000000000000006000009
:102FC00000010000000300000000000000070000F6
:102FD00000000000000000000000000000000000F1
:102FE00000040000000500000000000000000000D8
:102FF0000000005000000000A11C0000751B000034
:10300000551B0000991B0000191C0000611C0000EA
:103010000000000070776D5F6E7266355F73775FDA
:1030200070696E5F7365740000A00040000E0300BD
:10303000351E0000191E0000205B4552525D0070D5
:10304000776D2F6E7266355F7377005B25735D2534
:10305000732025733A2025734E6F206D6F726520A3
:103060006368616E6E656C7320617661696C616224
:103070006C6525730A00205B4442475D005B257345
:103080005D25732025733A20257350574D20256404
:103090002C20706572696F642025752C2070756C0A
:1030A000736520257525730A005B25735D257320E4
:1030B00025733A202573496E636F6D706174696280
:1030C0006C6520706572696F6425730A00000000EA
:1030D0008C130020C8130020D4130020EC13002010
:1030E000EC130020F5FFFFFF440400202A2A2A2ABF
:1030F0002A20426F6F74696E67205A657068797212
:10310000204F5320312E31322E3939202A2A2A2AB3
:043110002A0A000087
:103114000200000058130020000000003F2B0000B4
:103124002400020700000020472B00001E000B11A2
:10313400210800000090D003431B0000070000009A
:0C31440003000000010000004701000033
:10315000802A000000000000000000008C2A00000F
:103160000000000000000000BC2A00000000000079
:1031700000000000982A0000642B000000000000FE
:10318000A42A0000702B000000000000B02A0000FC
:103190000000000000000000C82A0000F82F000016
:1031A0001C040020D42A0000303000002804002035
:04000003000019B12F
:00000001FF
